{
  "contractName": "DisburseV1",
  "abi": [
    {
      "anonymous": false,
      "inputs": [
        {
          "indexed": false,
          "internalType": "bool",
          "name": "flag",
          "type": "bool"
        }
      ],
      "name": "CancelAllowed",
      "type": "event"
    },
    {
      "anonymous": false,
      "inputs": [
        {
          "indexed": false,
          "internalType": "address",
          "name": "from",
          "type": "address"
        },
        {
          "indexed": false,
          "internalType": "address",
          "name": "to",
          "type": "address"
        },
        {
          "indexed": false,
          "internalType": "uint256",
          "name": "amount",
          "type": "uint256"
        }
      ],
      "name": "DisburseFundsEvent",
      "type": "event"
    },
    {
      "anonymous": false,
      "inputs": [
        {
          "indexed": false,
          "internalType": "bool",
          "name": "flag",
          "type": "bool"
        }
      ],
      "name": "DisbursementCompleteEvent",
      "type": "event"
    },
    {
      "anonymous": false,
      "inputs": [
        {
          "indexed": false,
          "internalType": "bool",
          "name": "flag",
          "type": "bool"
        }
      ],
      "name": "DisbursementReadyEvent",
      "type": "event"
    },
    {
      "anonymous": false,
      "inputs": [
        {
          "indexed": false,
          "internalType": "bool",
          "name": "flag",
          "type": "bool"
        }
      ],
      "name": "RefundTrust",
      "type": "event"
    },
    {
      "anonymous": false,
      "inputs": [
        {
          "indexed": false,
          "internalType": "bool",
          "name": "flag",
          "type": "bool"
        }
      ],
      "name": "RemoveBeneficiary",
      "type": "event"
    },
    {
      "inputs": [
        {
          "internalType": "address",
          "name": "",
          "type": "address"
        }
      ],
      "name": "disbursementCount",
      "outputs": [
        {
          "internalType": "uint256",
          "name": "",
          "type": "uint256"
        }
      ],
      "stateMutability": "view",
      "type": "function",
      "constant": true
    },
    {
      "inputs": [
        {
          "internalType": "address",
          "name": "",
          "type": "address"
        },
        {
          "internalType": "uint256",
          "name": "",
          "type": "uint256"
        }
      ],
      "name": "disbursements",
      "outputs": [
        {
          "internalType": "uint256",
          "name": "id",
          "type": "uint256"
        },
        {
          "internalType": "address",
          "name": "trustAddress",
          "type": "address"
        },
        {
          "internalType": "uint256",
          "name": "beneficiaryId",
          "type": "uint256"
        }
      ],
      "stateMutability": "view",
      "type": "function",
      "constant": true
    },
    {
      "inputs": [
        {
          "internalType": "address",
          "name": "",
          "type": "address"
        }
      ],
      "name": "topDisbursementId",
      "outputs": [
        {
          "internalType": "uint256",
          "name": "",
          "type": "uint256"
        }
      ],
      "stateMutability": "view",
      "type": "function",
      "constant": true
    },
    {
      "inputs": [],
      "name": "contributeToTrust",
      "outputs": [],
      "stateMutability": "payable",
      "type": "function",
      "payable": true
    },
    {
      "inputs": [
        {
          "internalType": "address",
          "name": "_trustAddress",
          "type": "address"
        }
      ],
      "name": "getTrustBalance",
      "outputs": [
        {
          "internalType": "uint256",
          "name": "_balance",
          "type": "uint256"
        }
      ],
      "stateMutability": "view",
      "type": "function",
      "constant": true
    },
    {
      "inputs": [],
      "name": "withdrawTrustBalance",
      "outputs": [],
      "stateMutability": "nonpayable",
      "type": "function"
    },
    {
      "inputs": [
        {
          "internalType": "uint256",
          "name": "_amount",
          "type": "uint256"
        }
      ],
      "name": "withdrawAmountFromTrustBalance",
      "outputs": [],
      "stateMutability": "nonpayable",
      "type": "function"
    },
    {
      "inputs": [
        {
          "internalType": "address",
          "name": "_trustAddress",
          "type": "address"
        }
      ],
      "name": "getBeneficiaryBalance",
      "outputs": [
        {
          "internalType": "uint256",
          "name": "_balance",
          "type": "uint256"
        }
      ],
      "stateMutability": "view",
      "type": "function",
      "constant": true
    },
    {
      "inputs": [],
      "name": "getContractBalance",
      "outputs": [
        {
          "internalType": "uint256",
          "name": "_balance",
          "type": "uint256"
        }
      ],
      "stateMutability": "view",
      "type": "function",
      "constant": true
    },
    {
      "inputs": [
        {
          "internalType": "address",
          "name": "_beneficiaryAddress",
          "type": "address"
        },
        {
          "internalType": "uint256",
          "name": "_seconds",
          "type": "uint256"
        },
        {
          "internalType": "uint256",
          "name": "_amount",
          "type": "uint256"
        },
        {
          "internalType": "bool",
          "name": "_cancelAllowed",
          "type": "bool"
        }
      ],
      "name": "addBeneficiarySeconds",
      "outputs": [],
      "stateMutability": "nonpayable",
      "type": "function"
    },
    {
      "inputs": [
        {
          "internalType": "address",
          "name": "_beneficiaryAddress",
          "type": "address"
        },
        {
          "internalType": "uint256",
          "name": "_days",
          "type": "uint256"
        },
        {
          "internalType": "uint256",
          "name": "_amount",
          "type": "uint256"
        },
        {
          "internalType": "bool",
          "name": "_cancelAllowed",
          "type": "bool"
        }
      ],
      "name": "addBeneficiaryDays",
      "outputs": [],
      "stateMutability": "nonpayable",
      "type": "function"
    },
    {
      "inputs": [
        {
          "internalType": "address",
          "name": "_beneficiaryAddress",
          "type": "address"
        },
        {
          "internalType": "uint256",
          "name": "_seconds",
          "type": "uint256"
        },
        {
          "internalType": "uint256",
          "name": "_amount",
          "type": "uint256"
        },
        {
          "internalType": "bool",
          "name": "_cancelAllowed",
          "type": "bool"
        }
      ],
      "name": "addBeneficiary",
      "outputs": [],
      "stateMutability": "nonpayable",
      "type": "function"
    },
    {
      "inputs": [],
      "name": "getBeneficiaryCount",
      "outputs": [
        {
          "internalType": "uint256",
          "name": "_count",
          "type": "uint256"
        }
      ],
      "stateMutability": "view",
      "type": "function",
      "constant": true
    },
    {
      "inputs": [],
      "name": "getTopBeneficiaryId",
      "outputs": [
        {
          "internalType": "uint256",
          "name": "_count",
          "type": "uint256"
        }
      ],
      "stateMutability": "view",
      "type": "function",
      "constant": true
    },
    {
      "inputs": [
        {
          "internalType": "uint256",
          "name": "_beneficiaryId",
          "type": "uint256"
        }
      ],
      "name": "getBeneficiary",
      "outputs": [
        {
          "components": [
            {
              "internalType": "uint256",
              "name": "id",
              "type": "uint256"
            },
            {
              "internalType": "address",
              "name": "trustAddress",
              "type": "address"
            },
            {
              "internalType": "address",
              "name": "beneficiaryAddress",
              "type": "address"
            },
            {
              "internalType": "uint256",
              "name": "disburseDate",
              "type": "uint256"
            },
            {
              "internalType": "uint256",
              "name": "amount",
              "type": "uint256"
            },
            {
              "internalType": "bool",
              "name": "cancelAllowed",
              "type": "bool"
            },
            {
              "internalType": "bool",
              "name": "complete",
              "type": "bool"
            }
          ],
          "internalType": "struct DisburseV1.Beneficiary",
          "name": "_beneficiary",
          "type": "tuple"
        }
      ],
      "stateMutability": "view",
      "type": "function",
      "constant": true
    },
    {
      "inputs": [
        {
          "internalType": "address",
          "name": "_beneficiaryAddress",
          "type": "address"
        }
      ],
      "name": "getBeneficiaryId",
      "outputs": [
        {
          "internalType": "uint256",
          "name": "_id",
          "type": "uint256"
        }
      ],
      "stateMutability": "view",
      "type": "function",
      "constant": true
    },
    {
      "inputs": [
        {
          "internalType": "address",
          "name": "_trustAddress",
          "type": "address"
        },
        {
          "internalType": "uint256",
          "name": "_beneficiaryId",
          "type": "uint256"
        }
      ],
      "name": "getDisbursementId",
      "outputs": [
        {
          "internalType": "uint256",
          "name": "_id",
          "type": "uint256"
        }
      ],
      "stateMutability": "view",
      "type": "function",
      "constant": true
    },
    {
      "inputs": [
        {
          "internalType": "address",
          "name": "_trustAddress",
          "type": "address"
        },
        {
          "internalType": "uint256",
          "name": "_id",
          "type": "uint256"
        }
      ],
      "name": "readyToDisburse",
      "outputs": [
        {
          "internalType": "bool",
          "name": "",
          "type": "bool"
        }
      ],
      "stateMutability": "view",
      "type": "function",
      "constant": true
    },
    {
      "inputs": [
        {
          "internalType": "address",
          "name": "_trustAddress",
          "type": "address"
        },
        {
          "internalType": "uint256",
          "name": "_beneficiaryId",
          "type": "uint256"
        }
      ],
      "name": "disburseFunds",
      "outputs": [],
      "stateMutability": "nonpayable",
      "type": "function"
    },
    {
      "inputs": [
        {
          "internalType": "uint256",
          "name": "_beneficiaryId",
          "type": "uint256"
        }
      ],
      "name": "removeBeneficiary",
      "outputs": [],
      "stateMutability": "nonpayable",
      "type": "function"
    },
    {
      "inputs": [
        {
          "internalType": "uint256",
          "name": "_disbursementId",
          "type": "uint256"
        }
      ],
      "name": "refundTrust",
      "outputs": [],
      "stateMutability": "nonpayable",
      "type": "function"
    }
  ],
  "bytecode": "0x608060405234801561001057600080fd5b50612748806100206000396000f3fe60806040526004361061012a5760003560e01c80639a6e7fd1116100ab578063d3df98271161006f578063d3df9827146103e5578063daf33fc814610422578063de9723ed1461044b578063f552cc7d14610474578063fae56809146104b1578063fd1c02c5146104da5761012a565b80639a6e7fd114610326578063ad48e2a214610351578063b0ac91021461037a578063b8d88ac6146103a5578063cfd0344d146103bc5761012a565b80635b8d9658116100f25780635b8d96581461024c57806363871d25146102565780636f9fb98a1461027f578063799575c2146102aa5780637a153043146102e75761012a565b806307bcb6ef1461012f5780630a455f6a1461016c5780632d772992146101a9578063302df083146101d2578063539d83c61461020f575b600080fd5b34801561013b57600080fd5b50610156600480360381019061015191906123ed565b610517565b6040516101639190612633565b60405180910390f35b34801561017857600080fd5b50610193600480360381019061018e91906123ed565b610560565b6040516101a09190612633565b60405180910390f35b3480156101b557600080fd5b506101d060048036038101906101cb91906124b5565b610781565b005b3480156101de57600080fd5b506101f960048036038101906101f491906124b5565b610818565b6040516102069190612618565b60405180910390f35b34801561021b57600080fd5b50610236600480360381019061023191906123ed565b610981565b6040516102439190612633565b60405180910390f35b6102546109ca565b005b34801561026257600080fd5b5061027d600480360381019061027891906124b5565b610a19565b005b34801561028b57600080fd5b50610294610e9f565b6040516102a19190612633565b60405180910390f35b3480156102b657600080fd5b506102d160048036038101906102cc9190612416565b610ea7565b6040516102de91906125fd565b60405180910390f35b3480156102f357600080fd5b5061030e60048036038101906103099190612416565b611041565b60405161031d9392919061264e565b60405180910390f35b34801561033257600080fd5b5061033b611098565b6040516103489190612633565b60405180910390f35b34801561035d57600080fd5b5061037860048036038101906103739190612416565b6110df565b005b34801561038657600080fd5b5061038f611532565b60405161039c9190612633565b60405180910390f35b3480156103b157600080fd5b506103ba611579565b005b3480156103c857600080fd5b506103e360048036038101906103de9190612452565b611607565b005b3480156103f157600080fd5b5061040c600480360381019061040791906123ed565b611619565b6040516104199190612633565b60405180910390f35b34801561042e57600080fd5b50610449600480360381019061044491906124b5565b611631565b005b34801561045757600080fd5b50610472600480360381019061046d9190612452565b611b17565b005b34801561048057600080fd5b5061049b600480360381019061049691906123ed565b611b34565b6040516104a89190612633565b60405180910390f35b3480156104bd57600080fd5b506104d860048036038101906104d39190612452565b611b4c565b005b3480156104e657600080fd5b5061050160048036038101906104fc9190612416565b611e7e565b60405161050e9190612633565b60405180910390f35b6000600460008373ffffffffffffffffffffffffffffffffffffffff1673ffffffffffffffffffffffffffffffffffffffff168152602001908152602001600020549050919050565b600080600260003373ffffffffffffffffffffffffffffffffffffffff1673ffffffffffffffffffffffffffffffffffffffff16815260200190815260200160002054905060005b81811161077a576105b761230a565b6000803373ffffffffffffffffffffffffffffffffffffffff1673ffffffffffffffffffffffffffffffffffffffff16815260200190815260200160002060008381526020019081526020016000206040518060e0016040529081600082015481526020016001820160009054906101000a900473ffffffffffffffffffffffffffffffffffffffff1673ffffffffffffffffffffffffffffffffffffffff1673ffffffffffffffffffffffffffffffffffffffff1681526020016002820160009054906101000a900473ffffffffffffffffffffffffffffffffffffffff1673ffffffffffffffffffffffffffffffffffffffff1673ffffffffffffffffffffffffffffffffffffffff16815260200160038201548152602001600482015481526020016005820160009054906101000a900460ff161515151581526020016005820160019054906101000a900460ff16151515158152505090508473ffffffffffffffffffffffffffffffffffffffff16816040015173ffffffffffffffffffffffffffffffffffffffff1614801561075a5750600015158160c001511515145b1561076c57806000015193505061077a565b5080806001019150506105a8565b5050919050565b80600360003373ffffffffffffffffffffffffffffffffffffffff1673ffffffffffffffffffffffffffffffffffffffff168152602001908152602001600020600082825403925050819055503373ffffffffffffffffffffffffffffffffffffffff166108fc829081150290604051600060405180830381858888f19350505050158015610814573d6000803e3d6000fd5b5050565b61082061230a565b6000803373ffffffffffffffffffffffffffffffffffffffff1673ffffffffffffffffffffffffffffffffffffffff16815260200190815260200160002060008381526020019081526020016000206040518060e0016040529081600082015481526020016001820160009054906101000a900473ffffffffffffffffffffffffffffffffffffffff1673ffffffffffffffffffffffffffffffffffffffff1673ffffffffffffffffffffffffffffffffffffffff1681526020016002820160009054906101000a900473ffffffffffffffffffffffffffffffffffffffff1673ffffffffffffffffffffffffffffffffffffffff1673ffffffffffffffffffffffffffffffffffffffff16815260200160038201548152602001600482015481526020016005820160009054906101000a900460ff161515151581526020016005820160019054906101000a900460ff1615151515815250509050919050565b6000600360008373ffffffffffffffffffffffffffffffffffffffff1673ffffffffffffffffffffffffffffffffffffffff168152602001908152602001600020549050919050565b34600360003373ffffffffffffffffffffffffffffffffffffffff1673ffffffffffffffffffffffffffffffffffffffff16815260200190815260200160002060008282540192505081905550565b6000339050610a2661230a565b6000808373ffffffffffffffffffffffffffffffffffffffff1673ffffffffffffffffffffffffffffffffffffffff16815260200190815260200160002060008481526020019081526020016000206040518060e0016040529081600082015481526020016001820160009054906101000a900473ffffffffffffffffffffffffffffffffffffffff1673ffffffffffffffffffffffffffffffffffffffff1673ffffffffffffffffffffffffffffffffffffffff1681526020016002820160009054906101000a900473ffffffffffffffffffffffffffffffffffffffff1673ffffffffffffffffffffffffffffffffffffffff1673ffffffffffffffffffffffffffffffffffffffff16815260200160038201548152602001600482015481526020016005820160009054906101000a900460ff161515151581526020016005820160019054906101000a900460ff1615151515815250509050828160000151148015610b9d5750600115158160a001511515145b15610e61576000610bae8385610ea7565b905080610e5b578160800151600460008573ffffffffffffffffffffffffffffffffffffffff1673ffffffffffffffffffffffffffffffffffffffff1681526020019081526020016000206000828254039250508190555060018060008573ffffffffffffffffffffffffffffffffffffffff1673ffffffffffffffffffffffffffffffffffffffff16815260200190815260200160002060008282540392505081905550600160066000846040015173ffffffffffffffffffffffffffffffffffffffff1673ffffffffffffffffffffffffffffffffffffffff168152602001908152602001600020600082825403925050819055506000610cb18486611e7e565b905060056000846040015173ffffffffffffffffffffffffffffffffffffffff1673ffffffffffffffffffffffffffffffffffffffff16815260200190815260200160002060008281526020019081526020016000206000808201600090556001820160006101000a81549073ffffffffffffffffffffffffffffffffffffffff0219169055600282016000905550506000808573ffffffffffffffffffffffffffffffffffffffff1673ffffffffffffffffffffffffffffffffffffffff16815260200190815260200160002060008681526020019081526020016000206000808201600090556001820160006101000a81549073ffffffffffffffffffffffffffffffffffffffff02191690556002820160006101000a81549073ffffffffffffffffffffffffffffffffffffffff0219169055600382016000905560048201600090556005820160006101000a81549060ff02191690556005820160016101000a81549060ff021916905550507fffbcba49e4731938e8d761a104e6bbb04ecb95f7cc2bc31c27690ccf9120675d6001604051610e5191906125fd565b60405180910390a1505b50610e9a565b7fffbcba49e4731938e8d761a104e6bbb04ecb95f7cc2bc31c27690ccf9120675d6000604051610e9191906125fd565b60405180910390a15b505050565b600047905090565b6000610eb161230a565b6000808573ffffffffffffffffffffffffffffffffffffffff1673ffffffffffffffffffffffffffffffffffffffff16815260200190815260200160002060008481526020019081526020016000206040518060e0016040529081600082015481526020016001820160009054906101000a900473ffffffffffffffffffffffffffffffffffffffff1673ffffffffffffffffffffffffffffffffffffffff1673ffffffffffffffffffffffffffffffffffffffff1681526020016002820160009054906101000a900473ffffffffffffffffffffffffffffffffffffffff1673ffffffffffffffffffffffffffffffffffffffff1673ffffffffffffffffffffffffffffffffffffffff16815260200160038201548152602001600482015481526020016005820160009054906101000a900460ff161515151581526020016005820160019054906101000a900460ff16151515158152505090506000816060015114158015611026575080606001514210155b1561103557600191505061103b565b60009150505b92915050565b6005602052816000526040600020602052806000526040600020600091509150508060000154908060010160009054906101000a900473ffffffffffffffffffffffffffffffffffffffff16908060020154905083565b6000600160003373ffffffffffffffffffffffffffffffffffffffff1673ffffffffffffffffffffffffffffffffffffffff16815260200190815260200160002054905090565b6110e761230a565b6000808473ffffffffffffffffffffffffffffffffffffffff1673ffffffffffffffffffffffffffffffffffffffff16815260200190815260200160002060008381526020019081526020016000206040518060e0016040529081600082015481526020016001820160009054906101000a900473ffffffffffffffffffffffffffffffffffffffff1673ffffffffffffffffffffffffffffffffffffffff1673ffffffffffffffffffffffffffffffffffffffff1681526020016002820160009054906101000a900473ffffffffffffffffffffffffffffffffffffffff1673ffffffffffffffffffffffffffffffffffffffff1673ffffffffffffffffffffffffffffffffffffffff16815260200160038201548152602001600482015481526020016005820160009054906101000a900460ff161515151581526020016005820160019054906101000a900460ff1615151515815250509050600061124f8484610ea7565b90507fe69558f5a4daf1e96f1d8768166d1b7942396e2b159afcede77b6058b4278e0c848360400151846080015160405161128c939291906125c6565b60405180910390a17fecdc0c677b0b651d584f78016ab338645d78932efd26d3cf016a521036bb66098260c001516040516112c791906125fd565b60405180910390a17f6f2d9afa3c19b06834ae40509756c490fdd2d03459d9b51b563fa388d087bb5e816040516112fe91906125fd565b60405180910390a1600015158260c00151151514801561131b5750805b1561152c576000826040015190506000836080015190508060036000866020015173ffffffffffffffffffffffffffffffffffffffff1673ffffffffffffffffffffffffffffffffffffffff168152602001908152602001600020600082825403925050819055508060046000866020015173ffffffffffffffffffffffffffffffffffffffff1673ffffffffffffffffffffffffffffffffffffffff1681526020019081526020016000206000828254039250508190555060018060008873ffffffffffffffffffffffffffffffffffffffff1673ffffffffffffffffffffffffffffffffffffffff16815260200190815260200160002060008282540392505081905550600160066000866040015173ffffffffffffffffffffffffffffffffffffffff1673ffffffffffffffffffffffffffffffffffffffff168152602001908152602001600020600082825403925050819055506001600080866020015173ffffffffffffffffffffffffffffffffffffffff1673ffffffffffffffffffffffffffffffffffffffff168152602001908152602001600020600087815260200190815260200160002060050160016101000a81548160ff0219169083151502179055508173ffffffffffffffffffffffffffffffffffffffff166108fc829081150290604051600060405180830381858888f19350505050158015611528573d6000803e3d6000fd5b5050505b50505050565b6000600260003373ffffffffffffffffffffffffffffffffffffffff1673ffffffffffffffffffffffffffffffffffffffff16815260200190815260200160002054905090565b6000600360003373ffffffffffffffffffffffffffffffffffffffff1673ffffffffffffffffffffffffffffffffffffffff168152602001908152602001600020819055503373ffffffffffffffffffffffffffffffffffffffff166108fc479081150290604051600060405180830381858888f19350505050158015611604573d6000803e3d6000fd5b50565b61161384848484611b4c565b50505050565b60076020528060005260406000206000915090505481565b611639612377565b600560003373ffffffffffffffffffffffffffffffffffffffff1673ffffffffffffffffffffffffffffffffffffffff1681526020019081526020016000206000838152602001908152602001600020604051806060016040529081600082015481526020016001820160009054906101000a900473ffffffffffffffffffffffffffffffffffffffff1673ffffffffffffffffffffffffffffffffffffffff1673ffffffffffffffffffffffffffffffffffffffff168152602001600282015481525050905061170861230a565b600080836020015173ffffffffffffffffffffffffffffffffffffffff1673ffffffffffffffffffffffffffffffffffffffff1681526020019081526020016000206000836040015181526020019081526020016000206040518060e0016040529081600082015481526020016001820160009054906101000a900473ffffffffffffffffffffffffffffffffffffffff1673ffffffffffffffffffffffffffffffffffffffff1673ffffffffffffffffffffffffffffffffffffffff1681526020016002820160009054906101000a900473ffffffffffffffffffffffffffffffffffffffff1673ffffffffffffffffffffffffffffffffffffffff1673ffffffffffffffffffffffffffffffffffffffff16815260200160038201548152602001600482015481526020016005820160009054906101000a900460ff161515151581526020016005820160019054906101000a900460ff1615151515815250509050806080015160046000846020015173ffffffffffffffffffffffffffffffffffffffff1673ffffffffffffffffffffffffffffffffffffffff168152602001908152602001600020600082825403925050819055506001806000846020015173ffffffffffffffffffffffffffffffffffffffff1673ffffffffffffffffffffffffffffffffffffffff16815260200190815260200160002060008282540392505081905550600160066000836040015173ffffffffffffffffffffffffffffffffffffffff1673ffffffffffffffffffffffffffffffffffffffff1681526020019081526020016000206000828254039250508190555060056000826040015173ffffffffffffffffffffffffffffffffffffffff1673ffffffffffffffffffffffffffffffffffffffff16815260200190815260200160002060008481526020019081526020016000206000808201600090556001820160006101000a81549073ffffffffffffffffffffffffffffffffffffffff021916905560028201600090555050600080826020015173ffffffffffffffffffffffffffffffffffffffff1673ffffffffffffffffffffffffffffffffffffffff1681526020019081526020016000206000826000015181526020019081526020016000206000808201600090556001820160006101000a81549073ffffffffffffffffffffffffffffffffffffffff02191690556002820160006101000a81549073ffffffffffffffffffffffffffffffffffffffff0219169055600382016000905560048201600090556005820160006101000a81549060ff02191690556005820160016101000a81549060ff021916905550507f378d509c7a00b59f6ba1227253f622ca750a85bf45cd3432c527351eb76007f46001604051611b0a91906125fd565b60405180910390a1505050565b60006201518084029050611b2d85828585611b4c565b5050505050565b60066020528060005260406000206000915090505481565b60003390506000611b5c82610981565b905060008111611b6b57600080fd5b6000611b7683610517565b9050818582011115611b8757600080fd5b84600460008573ffffffffffffffffffffffffffffffffffffffff1673ffffffffffffffffffffffffffffffffffffffff16815260200190815260200160002060008282540192505081905550600086420190506001600260008673ffffffffffffffffffffffffffffffffffffffff1673ffffffffffffffffffffffffffffffffffffffff168152602001908152602001600020600082825401925050819055506000600260008673ffffffffffffffffffffffffffffffffffffffff1673ffffffffffffffffffffffffffffffffffffffff168152602001908152602001600020549050611c7561230a565b6040518060e001604052808381526020018773ffffffffffffffffffffffffffffffffffffffff1681526020018b73ffffffffffffffffffffffffffffffffffffffff1681526020018481526020018981526020018815158152602001600015158152509050806000808873ffffffffffffffffffffffffffffffffffffffff1673ffffffffffffffffffffffffffffffffffffffff16815260200190815260200160002060008481526020019081526020016000206000820151816000015560208201518160010160006101000a81548173ffffffffffffffffffffffffffffffffffffffff021916908373ffffffffffffffffffffffffffffffffffffffff16021790555060408201518160020160006101000a81548173ffffffffffffffffffffffffffffffffffffffff021916908373ffffffffffffffffffffffffffffffffffffffff160217905550606082015181600301556080820151816004015560a08201518160050160006101000a81548160ff02191690831515021790555060c08201518160050160016101000a81548160ff02191690831515021790555090505060018060008873ffffffffffffffffffffffffffffffffffffffff1673ffffffffffffffffffffffffffffffffffffffff16815260200190815260200160002060008282540192505081905550611e7286838c612139565b50505050505050505050565b6000611e8861230a565b6000808573ffffffffffffffffffffffffffffffffffffffff1673ffffffffffffffffffffffffffffffffffffffff16815260200190815260200160002060008481526020019081526020016000206040518060e0016040529081600082015481526020016001820160009054906101000a900473ffffffffffffffffffffffffffffffffffffffff1673ffffffffffffffffffffffffffffffffffffffff1673ffffffffffffffffffffffffffffffffffffffff1681526020016002820160009054906101000a900473ffffffffffffffffffffffffffffffffffffffff1673ffffffffffffffffffffffffffffffffffffffff1673ffffffffffffffffffffffffffffffffffffffff16815260200160038201548152602001600482015481526020016005820160009054906101000a900460ff161515151581526020016005820160019054906101000a900460ff1615151515815250509050600060076000836040015173ffffffffffffffffffffffffffffffffffffffff1673ffffffffffffffffffffffffffffffffffffffff16815260200190815260200160002054905060005b8181116121305761203e612377565b60056000856040015173ffffffffffffffffffffffffffffffffffffffff1673ffffffffffffffffffffffffffffffffffffffff1681526020019081526020016000206000838152602001908152602001600020604051806060016040529081600082015481526020016001820160009054906101000a900473ffffffffffffffffffffffffffffffffffffffff1673ffffffffffffffffffffffffffffffffffffffff1673ffffffffffffffffffffffffffffffffffffffff16815260200160028201548152505090508581604001511415612122578060000151945050612130565b50808060010191505061202f565b50505092915050565b6001600760008373ffffffffffffffffffffffffffffffffffffffff1673ffffffffffffffffffffffffffffffffffffffff168152602001908152602001600020600082825401925050819055506000600760008373ffffffffffffffffffffffffffffffffffffffff1673ffffffffffffffffffffffffffffffffffffffff1681526020019081526020016000205490506121d3612377565b60405180606001604052808381526020018673ffffffffffffffffffffffffffffffffffffffff16815260200185815250905080600560008573ffffffffffffffffffffffffffffffffffffffff1673ffffffffffffffffffffffffffffffffffffffff16815260200190815260200160002060008481526020019081526020016000206000820151816000015560208201518160010160006101000a81548173ffffffffffffffffffffffffffffffffffffffff021916908373ffffffffffffffffffffffffffffffffffffffff160217905550604082015181600201559050506001600660008573ffffffffffffffffffffffffffffffffffffffff1673ffffffffffffffffffffffffffffffffffffffff168152602001908152602001600020600082825401925050819055505050505050565b6040518060e0016040528060008152602001600073ffffffffffffffffffffffffffffffffffffffff168152602001600073ffffffffffffffffffffffffffffffffffffffff16815260200160008152602001600081526020016000151581526020016000151581525090565b604051806060016040528060008152602001600073ffffffffffffffffffffffffffffffffffffffff168152602001600081525090565b6000813590506123bd816126cd565b92915050565b6000813590506123d2816126e4565b92915050565b6000813590506123e7816126fb565b92915050565b6000602082840312156123ff57600080fd5b600061240d848285016123ae565b91505092915050565b6000806040838503121561242957600080fd5b6000612437858286016123ae565b9250506020612448858286016123d8565b9150509250929050565b6000806000806080858703121561246857600080fd5b6000612476878288016123ae565b9450506020612487878288016123d8565b9350506040612498878288016123d8565b92505060606124a9878288016123c3565b91505092959194509250565b6000602082840312156124c757600080fd5b60006124d5848285016123d8565b91505092915050565b6124e781612685565b82525050565b6124f681612685565b82525050565b61250581612697565b82525050565b61251481612697565b82525050565b60e08201600082015161253060008501826125a8565b50602082015161254360208501826124de565b50604082015161255660408501826124de565b50606082015161256960608501826125a8565b50608082015161257c60808501826125a8565b5060a082015161258f60a08501826124fc565b5060c08201516125a260c08501826124fc565b50505050565b6125b1816126c3565b82525050565b6125c0816126c3565b82525050565b60006060820190506125db60008301866124ed565b6125e860208301856124ed565b6125f560408301846125b7565b949350505050565b6000602082019050612612600083018461250b565b92915050565b600060e08201905061262d600083018461251a565b92915050565b600060208201905061264860008301846125b7565b92915050565b600060608201905061266360008301866125b7565b61267060208301856124ed565b61267d60408301846125b7565b949350505050565b6000612690826126a3565b9050919050565b60008115159050919050565b600073ffffffffffffffffffffffffffffffffffffffff82169050919050565b6000819050919050565b6126d681612685565b81146126e157600080fd5b50565b6126ed81612697565b81146126f857600080fd5b50565b612704816126c3565b811461270f57600080fd5b5056fea2646970667358221220084163f28d3e4eb92848ff37f2343c1d91f56b0d105a5cbc7455b1cd73467c2b64736f6c634300060c0033",
  "immutableReferences": {},
  "source": "// SPDX-License-Identifier: GPL-3.0\r\npragma solidity >=0.4.22 <0.8.0;\r\npragma experimental ABIEncoderV2;\r\n\r\ncontract DisburseV1 {\r\n \r\n     struct Beneficiary { \r\n        uint256 id;\r\n        address trustAddress;\r\n        address beneficiaryAddress;\r\n        uint256 disburseDate;\r\n        uint256 amount;\r\n        bool cancelAllowed;\r\n        bool complete;\r\n    }\r\n\r\n    struct Disbursement { \r\n        uint256 id;\r\n        address trustAddress;\r\n        uint256 beneficiaryId;\r\n    }\r\n\r\n    // Events:\r\n    event DisburseFundsEvent(address from, address to, uint256 amount);\r\n    event DisbursementCompleteEvent(bool flag);\r\n    event DisbursementReadyEvent(bool flag);\r\n    event CancelAllowed(bool flag);\r\n    event RemoveBeneficiary(bool flag);\r\n    event RefundTrust(bool flag);\r\n\r\n    // Mapping from trust to list of beneficiaries\r\n    // Mapping that outlines how funds should be disbursed to beneficiaries\r\n    mapping(address => mapping(uint256 => Beneficiary)) beneficiaries;\r\n\r\n    // Mapping to record total beneficiaries for each trust\r\n    mapping(address => uint256) beneficiaryCount;\r\n\r\n    // Mapping to record last beneficiary id for each trust\r\n    mapping(address => uint256) topBeneficiaryId;\r\n\r\n    // Mapping that records total trust balance\r\n    mapping(address => uint256) trustBalance;\r\n    \r\n    // Mapping the current beneficiary balance, which may be less than the trust balance\r\n    mapping(address => uint256) beneficiaryBalance;\r\n\r\n    // Mapping of beneficiary to list of disbursements\r\n    // Mapping that outlines all upcoming disbursements to beneficiaries\r\n    mapping(address => mapping(uint256 => Disbursement)) public disbursements;\r\n\r\n    // Mapping to record total disbursements for each beneficiary\r\n    mapping(address => uint256) public disbursementCount;\r\n\r\n    // Mapping to record last disbursement id for each beneficiary\r\n    mapping(address => uint256) public topDisbursementId;\r\n\r\n    function contributeToTrust() public payable {\r\n        trustBalance[msg.sender] += msg.value;  // Add funds to any previous funds\r\n    }\r\n\r\n    function getTrustBalance(address _trustAddress) public view returns(uint256 _balance) {\r\n        _balance = trustBalance[_trustAddress];\r\n    }\r\n\r\n    function withdrawTrustBalance() public {\r\n        trustBalance[msg.sender] = 0;\r\n        msg.sender.transfer(address(this).balance);\r\n    }\r\n\r\n    function withdrawAmountFromTrustBalance(uint256 _amount) public {\r\n        trustBalance[msg.sender] -= _amount;\r\n        msg.sender.transfer(_amount);\r\n    }\r\n\r\n    function getBeneficiaryBalance(address _trustAddress) public view returns(uint256 _balance) {\r\n        _balance = beneficiaryBalance[_trustAddress];\r\n    }\r\n\r\n    function getContractBalance() public view returns(uint256 _balance) {\r\n        _balance = address(this).balance;\r\n    }\r\n\r\n    function addBeneficiarySeconds(address _beneficiaryAddress, uint256 _seconds, uint256 _amount, bool _cancelAllowed) public {\r\n        addBeneficiary(_beneficiaryAddress, _seconds, _amount, _cancelAllowed);\r\n    }\r\n\r\n    function addBeneficiaryDays(address _beneficiaryAddress, uint256 _days, uint256 _amount, bool _cancelAllowed) public {\r\n        uint256 sec =  _days * 86400;               // Determine number of seconds\r\n        addBeneficiary(_beneficiaryAddress, sec, _amount, _cancelAllowed);\r\n    }\r\n\r\n    function addBeneficiary(address _beneficiaryAddress, uint256 _seconds, uint256 _amount, bool _cancelAllowed) public {\r\n        \r\n        // Only trust owner can add beneficiary \r\n        address trustAddress = msg.sender;\r\n        \r\n        // Ensure trust has been previously intiated\r\n        uint256 trustAmount = getTrustBalance(trustAddress);\r\n        require(trustAmount > 0);\r\n        \r\n        // Ensure trust has sufficient funds to disburse to beneficiary\r\n        uint256 beneficiaryAmount = getBeneficiaryBalance(trustAddress);\r\n        require (beneficiaryAmount + _amount <= trustAmount);\r\n        \r\n        // Update total beneficiary amount\r\n        beneficiaryBalance[trustAddress] += _amount;\r\n\r\n        // Determine beneficiary disbursement date\r\n        uint256 delayInSeconds = block.timestamp + _seconds;\r\n\r\n        // Update to next available beneficiary id\r\n        // NOTE: Id's cannot start at 0, otherwise the return id of an existing\r\n        // address and non-existing address will look the same\r\n        topBeneficiaryId[trustAddress] += 1;\r\n\r\n        // Get beneficiary id\r\n        uint256 beneficiaryId = topBeneficiaryId[trustAddress];\r\n\r\n        // Create new beneficiary\r\n        Beneficiary memory beneficiary = Beneficiary(\r\n                                            beneficiaryId,\r\n                                            trustAddress, \r\n                                            _beneficiaryAddress, \r\n                                            delayInSeconds, \r\n                                            _amount, \r\n                                            _cancelAllowed,\r\n                                            false);\r\n                                            \r\n\r\n        // Every key maps to something. If no value has been set yet, then the value is 0. \r\n        beneficiaries[trustAddress][beneficiaryId] = beneficiary;\r\n\r\n        // Update total number of beneficiaries this trust is managing\r\n        beneficiaryCount[trustAddress] += 1;\r\n\r\n        // Add disbursement\r\n        addDisbursement(trustAddress, beneficiaryId, _beneficiaryAddress);\r\n    }\r\n    \r\n    // Add a disbursement once a new beneficiary has been added \r\n    function addDisbursement(address _trustAddress, uint256 _beneficiaryId, address _beneficiaryAddress) internal {\r\n\r\n        // Update to next available disbursement id\r\n        topDisbursementId[_beneficiaryAddress] += 1;        \r\n        \r\n        // Get disbursement id that was just incremented\r\n        uint256 disbursementId = topDisbursementId[_beneficiaryAddress];\r\n\r\n        // Create new disbursement\r\n        Disbursement memory disbursement = Disbursement(\r\n                                            disbursementId,\r\n                                            _trustAddress, \r\n                                            _beneficiaryId);\r\n\r\n         // Every key maps to something. If no value has been set yet, then the value is 0. \r\n        disbursements[_beneficiaryAddress][disbursementId] = disbursement;\r\n        \r\n        // Update total number of disbursements this beneficiary is managing\r\n        disbursementCount[_beneficiaryAddress] += 1;    \r\n        \r\n    }\r\n    \r\n    // Retrieve total number of beneficiaries of a partricular trust account\r\n    function getBeneficiaryCount() public view returns(uint256 _count) {\r\n        _count = beneficiaryCount[msg.sender];\r\n    }\r\n\r\n    // Counter that increments the id's of beneficiaries\r\n    function getTopBeneficiaryId() public view returns(uint256 _count) {\r\n        _count = topBeneficiaryId[msg.sender];\r\n    }\r\n\r\n    // Retrieve beneficiary based on it's unique id\r\n    function getBeneficiary(uint256 _beneficiaryId) public view returns(Beneficiary memory _beneficiary) {\r\n        // Only trust owner can get details of beneficiary\r\n        _beneficiary = beneficiaries[msg.sender][_beneficiaryId];\r\n    }\r\n    \r\n    // TODO FIX: What happens if we have the same beneficiary Address on two different disbursement dates?\r\n    // This implies there is more than one ID associated with an address.\r\n\r\n    function getBeneficiaryId(address _beneficiaryAddress) public view returns(uint256 _id) {\r\n        \r\n        // NOTE: Id's cannot be zero indexed, otherwise the return id of an existing\r\n        // address and non-existing address will look the same\r\n        \r\n        // Retrieve the Id of the last most beneficiary\r\n        uint256 topId = topBeneficiaryId[msg.sender];\r\n        \r\n        for (uint256 id = 0; id <= topId; id++){\r\n            Beneficiary memory beneficiary = beneficiaries[msg.sender][id];\r\n            \r\n            if ((beneficiary.beneficiaryAddress == _beneficiaryAddress) &&\r\n                (beneficiary.complete == false)){\r\n                _id = beneficiary.id;\r\n                break;\r\n            }\r\n        }\r\n    }\r\n\r\n    // Retrieve the disbursement ID associated with a given beneficiary ID\r\n    function getDisbursementId(address _trustAddress, uint256 _beneficiaryId) public view returns(uint256 _id) {\r\n        \r\n        // Retrieve Beneficiary\r\n        Beneficiary memory beneficiary = beneficiaries[_trustAddress][_beneficiaryId];\r\n        \r\n        // Retrieve the Id of the last disbursement\r\n        uint256 topId = topDisbursementId[beneficiary.beneficiaryAddress];\r\n        \r\n        for (uint256 id = 0; id <= topId; id++){\r\n            \r\n            Disbursement memory disbursement = disbursements[beneficiary.beneficiaryAddress][id];\r\n            \r\n            if (disbursement.beneficiaryId == _beneficiaryId) {\r\n                _id = disbursement.id;\r\n                break;\r\n            }\r\n        }\r\n    }\r\n\r\n    // Determine if the disbursement date has passed\r\n    function readyToDisburse(address _trustAddress, uint256 _id) public view returns (bool) {\r\n        \r\n        Beneficiary memory beneficiary = beneficiaries[_trustAddress][_id];\r\n        \r\n        // Ensure deadline has been set && has passed\r\n        if (beneficiary.disburseDate != 0 && block.timestamp >= beneficiary.disburseDate) return true; \r\n\r\n        return false; \r\n    }  \r\n\r\n    // This function should be callable anyone, including the beneficiary\r\n    // This function will only execute AFTER the disbursement date, unlike removeBeneficiary which\r\n    // executes BEFORE the disbursement date. \r\n    function disburseFunds(address _trustAddress, uint256 _beneficiaryId) public {\r\n        \r\n        Beneficiary memory beneficiary = beneficiaries[_trustAddress][_beneficiaryId];\r\n        bool passedDisbursementDate = readyToDisburse(_trustAddress, _beneficiaryId);\r\n\r\n        emit DisburseFundsEvent(_trustAddress, beneficiary.beneficiaryAddress, beneficiary.amount);\r\n        emit DisbursementCompleteEvent(beneficiary.complete);\r\n        emit DisbursementReadyEvent(passedDisbursementDate);\r\n\r\n        // Will only execute AFTER disbursement date\r\n        if (beneficiary.complete == false && passedDisbursementDate) {\r\n\r\n            address payable beneficiaryAddress = payable(beneficiary.beneficiaryAddress);\r\n            uint256 amount = beneficiary.amount;\r\n            \r\n            // Reduce trust balance\r\n            trustBalance[beneficiary.trustAddress] -= amount;\r\n            \r\n            // Reduce total beneficiary claims\r\n            beneficiaryBalance[beneficiary.trustAddress] -= amount;\r\n            \r\n            // Update total number of ACTIVE beneficiaries this trust is managing\r\n            // This does not delete the history in the mapping\r\n            beneficiaryCount[_trustAddress] -= 1;\r\n\r\n            // Update total number of ACTIVE disbursements tied to this beneficiary\r\n            // This does not delete the history in the mapping\r\n            disbursementCount[beneficiary.beneficiaryAddress] -= 1;\r\n\r\n            // Set the complete flag to true\r\n            beneficiaries[beneficiary.trustAddress][_beneficiaryId].complete = true;\r\n\r\n            // Finally, disburse funds to beneficiary\r\n            beneficiaryAddress.transfer(amount);\r\n        }\r\n    }\r\n\r\n    // Remove beneficiary at a unique id\r\n    // This function will only execute BEFORE the disbursement date, unlike disburseFunds which\r\n    // executes AFTER the disbursement date.\r\n    function removeBeneficiary(uint256 _beneficiaryId) public {\r\n\r\n        address _trustAddress = msg.sender;\r\n        // Retrieve beneficiary address\r\n        Beneficiary memory beneficiary = beneficiaries[_trustAddress][_beneficiaryId];\r\n    \r\n        if ((beneficiary.id == _beneficiaryId)  && (beneficiary.cancelAllowed == true)) {\r\n\r\n            bool passedDisbursementDate = readyToDisburse(_trustAddress, _beneficiaryId);\r\n\r\n            // Will only execute BEFORE disbursement date\r\n            if (!passedDisbursementDate) {\r\n                \r\n                // The trustBalance changes with deposit, withdraw and disburseFunds.\r\n\r\n                // Reduce total beneficiary claims\r\n                beneficiaryBalance[_trustAddress] -= beneficiary.amount;\r\n                \r\n                // Update total number of beneficiaries this trust is managing\r\n                beneficiaryCount[_trustAddress] -= 1;\r\n\r\n                // Update total number of disbursements tied to this beneficiary\r\n                disbursementCount[beneficiary.beneficiaryAddress] -= 1;\r\n\r\n                uint256 disbursementId = getDisbursementId(_trustAddress, _beneficiaryId);\r\n\r\n                // will delete the struct.  \r\n                // This deletion must occur BEFORE the beneficiary deletion, otherwise address will not existing\r\n                delete disbursements[beneficiary.beneficiaryAddress][disbursementId];\r\n                \r\n                 // will delete the struct\r\n                delete beneficiaries[_trustAddress][_beneficiaryId];\r\n\r\n                emit RemoveBeneficiary(true);\r\n            }\r\n        }\r\n        else{\r\n            emit RemoveBeneficiary(false);\r\n        }\r\n    }\r\n\r\n    // This function can only be called by a valid beneficiary (not everyone)\r\n    function refundTrust(uint256 _disbursementId) public {\r\n\r\n        Disbursement memory disbursement = disbursements[msg.sender][_disbursementId];\r\n\r\n        Beneficiary memory beneficiary = beneficiaries[disbursement.trustAddress][disbursement.beneficiaryId];\r\n\r\n        // Reduce total beneficiary claims\r\n        beneficiaryBalance[disbursement.trustAddress] -= beneficiary.amount;\r\n        \r\n        // Update total number of beneficiaries this trust is managing\r\n        beneficiaryCount[disbursement.trustAddress] -= 1;\r\n\r\n        // Update total number of disbursements tied to this beneficiary\r\n        disbursementCount[beneficiary.beneficiaryAddress] -= 1;\r\n\r\n        // will delete the struct.  \r\n        // This deletion must occur BEFORE the beneficiary deletion, otherwise address will not existing\r\n        delete disbursements[beneficiary.beneficiaryAddress][_disbursementId];\r\n        \r\n        // will delete the struct\r\n        delete beneficiaries[beneficiary.trustAddress][beneficiary.id];\r\n\r\n        emit RefundTrust(true);\r\n    }\r\n\r\n}",
  "sourcePath": "D:/Code/app/contracts/DisburseV1.sol",
  "compiler": {
    "name": "solc",
    "version": "0.6.12+commit.27d51765.Emscripten.clang"
  },
  "schemaVersion": "3.3.2",
  "updatedAt": "2020-12-31T16:15:33.411Z",
  "networkType": "ethereum",
  "devdoc": {
    "kind": "dev",
    "methods": {},
    "version": 1
  },
  "userdoc": {
    "kind": "user",
    "methods": {},
    "version": 1
  }
}