{
  "contractName": "DisburseV1",
  "abi": [
    {
      "inputs": [],
      "name": "contributeToTrust",
      "outputs": [],
      "stateMutability": "payable",
      "type": "function",
      "payable": true
    },
    {
      "inputs": [
        {
          "internalType": "address",
          "name": "_trustAddress",
          "type": "address"
        }
      ],
      "name": "getTrustBalance",
      "outputs": [
        {
          "internalType": "uint256",
          "name": "_balance",
          "type": "uint256"
        }
      ],
      "stateMutability": "view",
      "type": "function",
      "constant": true
    },
    {
      "inputs": [],
      "name": "withdrawTrustBalance",
      "outputs": [],
      "stateMutability": "nonpayable",
      "type": "function"
    },
    {
      "inputs": [
        {
          "internalType": "uint256",
          "name": "_amount",
          "type": "uint256"
        }
      ],
      "name": "withdrawAmountFromTrustBalance",
      "outputs": [],
      "stateMutability": "nonpayable",
      "type": "function"
    },
    {
      "inputs": [
        {
          "internalType": "address",
          "name": "_trustAddress",
          "type": "address"
        }
      ],
      "name": "getBeneficiaryBalance",
      "outputs": [
        {
          "internalType": "uint256",
          "name": "_balance",
          "type": "uint256"
        }
      ],
      "stateMutability": "view",
      "type": "function",
      "constant": true
    },
    {
      "inputs": [],
      "name": "getContractBalance",
      "outputs": [
        {
          "internalType": "uint256",
          "name": "_balance",
          "type": "uint256"
        }
      ],
      "stateMutability": "view",
      "type": "function",
      "constant": true
    },
    {
      "inputs": [
        {
          "internalType": "address",
          "name": "_beneficiaryAddress",
          "type": "address"
        },
        {
          "internalType": "uint256",
          "name": "_seconds",
          "type": "uint256"
        },
        {
          "internalType": "uint256",
          "name": "_amount",
          "type": "uint256"
        }
      ],
      "name": "addBeneficiarySeconds",
      "outputs": [],
      "stateMutability": "nonpayable",
      "type": "function"
    },
    {
      "inputs": [
        {
          "internalType": "address",
          "name": "_beneficiaryAddress",
          "type": "address"
        },
        {
          "internalType": "uint256",
          "name": "_days",
          "type": "uint256"
        },
        {
          "internalType": "uint256",
          "name": "_amount",
          "type": "uint256"
        }
      ],
      "name": "addBeneficiaryDays",
      "outputs": [],
      "stateMutability": "nonpayable",
      "type": "function"
    },
    {
      "inputs": [
        {
          "internalType": "address",
          "name": "_beneficiaryAddress",
          "type": "address"
        },
        {
          "internalType": "uint256",
          "name": "_seconds",
          "type": "uint256"
        },
        {
          "internalType": "uint256",
          "name": "_amount",
          "type": "uint256"
        }
      ],
      "name": "addBeneficiary",
      "outputs": [],
      "stateMutability": "nonpayable",
      "type": "function"
    },
    {
      "inputs": [],
      "name": "getBeneficiaryCount",
      "outputs": [
        {
          "internalType": "uint256",
          "name": "_count",
          "type": "uint256"
        }
      ],
      "stateMutability": "view",
      "type": "function",
      "constant": true
    },
    {
      "inputs": [],
      "name": "getTopBeneficiaryId",
      "outputs": [
        {
          "internalType": "uint256",
          "name": "_count",
          "type": "uint256"
        }
      ],
      "stateMutability": "view",
      "type": "function",
      "constant": true
    },
    {
      "inputs": [
        {
          "internalType": "uint256",
          "name": "_id",
          "type": "uint256"
        }
      ],
      "name": "removeBeneficiary",
      "outputs": [],
      "stateMutability": "nonpayable",
      "type": "function"
    },
    {
      "inputs": [
        {
          "internalType": "uint256",
          "name": "_id",
          "type": "uint256"
        }
      ],
      "name": "getBeneficiary",
      "outputs": [
        {
          "components": [
            {
              "internalType": "uint256",
              "name": "id",
              "type": "uint256"
            },
            {
              "internalType": "address",
              "name": "trustAddress",
              "type": "address"
            },
            {
              "internalType": "address",
              "name": "beneficiaryAddress",
              "type": "address"
            },
            {
              "internalType": "uint256",
              "name": "disburseDate",
              "type": "uint256"
            },
            {
              "internalType": "uint256",
              "name": "amount",
              "type": "uint256"
            },
            {
              "internalType": "bool",
              "name": "complete",
              "type": "bool"
            }
          ],
          "internalType": "struct DisburseV1.Beneficiary",
          "name": "_beneficiary",
          "type": "tuple"
        }
      ],
      "stateMutability": "view",
      "type": "function",
      "constant": true
    },
    {
      "inputs": [
        {
          "internalType": "address",
          "name": "_beneficiaryAddress",
          "type": "address"
        }
      ],
      "name": "getBeneficiaryId",
      "outputs": [
        {
          "internalType": "uint256",
          "name": "_id",
          "type": "uint256"
        }
      ],
      "stateMutability": "view",
      "type": "function",
      "constant": true
    },
    {
      "inputs": [
        {
          "internalType": "uint256",
          "name": "_id",
          "type": "uint256"
        }
      ],
      "name": "readyToDisburse",
      "outputs": [
        {
          "internalType": "bool",
          "name": "",
          "type": "bool"
        }
      ],
      "stateMutability": "view",
      "type": "function",
      "constant": true
    },
    {
      "inputs": [
        {
          "internalType": "uint256",
          "name": "_id",
          "type": "uint256"
        }
      ],
      "name": "disburseFunds",
      "outputs": [],
      "stateMutability": "nonpayable",
      "type": "function"
    }
  ],
  "bytecode": "0x608060405234801561001057600080fd5b506116de806100206000396000f3fe6080604052600436106100f35760003560e01c80636f9fb98a1161008a578063b8d88ac611610059578063b8d88ac61461032f578063cc212a4814610346578063e1f3f4691461036f578063f74bc9d614610398576100f3565b80636f9fb98a1461028557806376681a91146102b05780639a6e7fd1146102d9578063b0ac910214610304576100f3565b8063430ece94116100c6578063430ece94146101d8578063539d83c6146102155780635b8d96581461025257806363871d251461025c576100f3565b806307bcb6ef146100f85780630a455f6a146101355780632d77299214610172578063302df0831461019b575b600080fd5b34801561010457600080fd5b5061011f600480360381019061011a919061147a565b6103c1565b60405161012c9190611617565b60405180910390f35b34801561014157600080fd5b5061015c6004803603810190610157919061147a565b61040a565b6040516101699190611617565b60405180910390f35b34801561017e57600080fd5b50610199600480360381019061019491906114f2565b6105fc565b005b3480156101a757600080fd5b506101c260048036038101906101bd91906114f2565b610693565b6040516101cf91906115fc565b60405180910390f35b3480156101e457600080fd5b506101ff60048036038101906101fa91906114f2565b6107e1565b60405161020c91906115e1565b60405180910390f35b34801561022157600080fd5b5061023c6004803603810190610237919061147a565b61095f565b6040516102499190611617565b60405180910390f35b61025a6109a8565b005b34801561026857600080fd5b50610283600480360381019061027e91906114f2565b6109f7565b005b34801561029157600080fd5b5061029a610cbc565b6040516102a79190611617565b60405180910390f35b3480156102bc57600080fd5b506102d760048036038101906102d291906114a3565b610cc4565b005b3480156102e557600080fd5b506102ee610cd4565b6040516102fb9190611617565b60405180910390f35b34801561031057600080fd5b50610319610d1b565b6040516103269190611617565b60405180910390f35b34801561033b57600080fd5b50610344610d62565b005b34801561035257600080fd5b5061036d600480360381019061036891906114f2565b610df0565b005b34801561037b57600080fd5b50610396600480360381019061039191906114a3565b6110d2565b005b3480156103a457600080fd5b506103bf60048036038101906103ba91906114a3565b6110ed565b005b6000600460008373ffffffffffffffffffffffffffffffffffffffff1673ffffffffffffffffffffffffffffffffffffffff168152602001908152602001600020549050919050565b600080600360003373ffffffffffffffffffffffffffffffffffffffff1673ffffffffffffffffffffffffffffffffffffffff16815260200190815260200160002054905060005b8181116105f5576104616113ec565b6000803373ffffffffffffffffffffffffffffffffffffffff1673ffffffffffffffffffffffffffffffffffffffff16815260200190815260200160002060008381526020019081526020016000206040518060c0016040529081600082015481526020016001820160009054906101000a900473ffffffffffffffffffffffffffffffffffffffff1673ffffffffffffffffffffffffffffffffffffffff1673ffffffffffffffffffffffffffffffffffffffff1681526020016002820160009054906101000a900473ffffffffffffffffffffffffffffffffffffffff1673ffffffffffffffffffffffffffffffffffffffff1673ffffffffffffffffffffffffffffffffffffffff16815260200160038201548152602001600482015481526020016005820160009054906101000a900460ff16151515158152505090508473ffffffffffffffffffffffffffffffffffffffff16816040015173ffffffffffffffffffffffffffffffffffffffff1614156105e75780600001519350506105f5565b508080600101915050610452565b5050919050565b80600160003373ffffffffffffffffffffffffffffffffffffffff1673ffffffffffffffffffffffffffffffffffffffff168152602001908152602001600020600082825403925050819055503373ffffffffffffffffffffffffffffffffffffffff166108fc829081150290604051600060405180830381858888f1935050505015801561068f573d6000803e3d6000fd5b5050565b61069b6113ec565b6000803373ffffffffffffffffffffffffffffffffffffffff1673ffffffffffffffffffffffffffffffffffffffff16815260200190815260200160002060008381526020019081526020016000206040518060c0016040529081600082015481526020016001820160009054906101000a900473ffffffffffffffffffffffffffffffffffffffff1673ffffffffffffffffffffffffffffffffffffffff1673ffffffffffffffffffffffffffffffffffffffff1681526020016002820160009054906101000a900473ffffffffffffffffffffffffffffffffffffffff1673ffffffffffffffffffffffffffffffffffffffff1673ffffffffffffffffffffffffffffffffffffffff16815260200160038201548152602001600482015481526020016005820160009054906101000a900460ff1615151515815250509050919050565b60006107eb6113ec565b6000803373ffffffffffffffffffffffffffffffffffffffff1673ffffffffffffffffffffffffffffffffffffffff16815260200190815260200160002060008481526020019081526020016000206040518060c0016040529081600082015481526020016001820160009054906101000a900473ffffffffffffffffffffffffffffffffffffffff1673ffffffffffffffffffffffffffffffffffffffff1673ffffffffffffffffffffffffffffffffffffffff1681526020016002820160009054906101000a900473ffffffffffffffffffffffffffffffffffffffff1673ffffffffffffffffffffffffffffffffffffffff1673ffffffffffffffffffffffffffffffffffffffff16815260200160038201548152602001600482015481526020016005820160009054906101000a900460ff16151515158152505090506000816060015114158015610945575080606001514210155b1561095457600191505061095a565b60009150505b919050565b6000600160008373ffffffffffffffffffffffffffffffffffffffff1673ffffffffffffffffffffffffffffffffffffffff168152602001908152602001600020549050919050565b34600160003373ffffffffffffffffffffffffffffffffffffffff1673ffffffffffffffffffffffffffffffffffffffff16815260200190815260200160002060008282540192505081905550565b6109ff6113ec565b6000803373ffffffffffffffffffffffffffffffffffffffff1673ffffffffffffffffffffffffffffffffffffffff16815260200190815260200160002060008381526020019081526020016000206040518060c0016040529081600082015481526020016001820160009054906101000a900473ffffffffffffffffffffffffffffffffffffffff1673ffffffffffffffffffffffffffffffffffffffff1673ffffffffffffffffffffffffffffffffffffffff1681526020016002820160009054906101000a900473ffffffffffffffffffffffffffffffffffffffff1673ffffffffffffffffffffffffffffffffffffffff1673ffffffffffffffffffffffffffffffffffffffff16815260200160038201548152602001600482015481526020016005820160009054906101000a900460ff16151515158152505090508181600001511415610cb8578060800151600460003373ffffffffffffffffffffffffffffffffffffffff1673ffffffffffffffffffffffffffffffffffffffff168152602001908152602001600020600082825403925050819055506001600260003373ffffffffffffffffffffffffffffffffffffffff1673ffffffffffffffffffffffffffffffffffffffff168152602001908152602001600020600082825403925050819055506000803373ffffffffffffffffffffffffffffffffffffffff1673ffffffffffffffffffffffffffffffffffffffff16815260200190815260200160002060008381526020019081526020016000206000808201600090556001820160006101000a81549073ffffffffffffffffffffffffffffffffffffffff02191690556002820160006101000a81549073ffffffffffffffffffffffffffffffffffffffff0219169055600382016000905560048201600090556005820160006101000a81549060ff021916905550505b5050565b600047905090565b610ccf8383836110ed565b505050565b6000600260003373ffffffffffffffffffffffffffffffffffffffff1673ffffffffffffffffffffffffffffffffffffffff16815260200190815260200160002054905090565b6000600360003373ffffffffffffffffffffffffffffffffffffffff1673ffffffffffffffffffffffffffffffffffffffff16815260200190815260200160002054905090565b6000600160003373ffffffffffffffffffffffffffffffffffffffff1673ffffffffffffffffffffffffffffffffffffffff168152602001908152602001600020819055503373ffffffffffffffffffffffffffffffffffffffff166108fc479081150290604051600060405180830381858888f19350505050158015610ded573d6000803e3d6000fd5b50565b610df86113ec565b6000803373ffffffffffffffffffffffffffffffffffffffff1673ffffffffffffffffffffffffffffffffffffffff16815260200190815260200160002060008381526020019081526020016000206040518060c0016040529081600082015481526020016001820160009054906101000a900473ffffffffffffffffffffffffffffffffffffffff1673ffffffffffffffffffffffffffffffffffffffff1673ffffffffffffffffffffffffffffffffffffffff1681526020016002820160009054906101000a900473ffffffffffffffffffffffffffffffffffffffff1673ffffffffffffffffffffffffffffffffffffffff1673ffffffffffffffffffffffffffffffffffffffff16815260200160038201548152602001600482015481526020016005820160009054906101000a900460ff16151515158152505090506000610f44836107e1565b9050600015158260a001511515148015610f5b5750805b156110cd576000826040015190506000836080015190508060016000866020015173ffffffffffffffffffffffffffffffffffffffff1673ffffffffffffffffffffffffffffffffffffffff168152602001908152602001600020600082825403925050819055508060046000866020015173ffffffffffffffffffffffffffffffffffffffff1673ffffffffffffffffffffffffffffffffffffffff168152602001908152602001600020600082825403925050819055506001600080866020015173ffffffffffffffffffffffffffffffffffffffff1673ffffffffffffffffffffffffffffffffffffffff168152602001908152602001600020600087815260200190815260200160002060050160006101000a81548160ff0219169083151502179055508173ffffffffffffffffffffffffffffffffffffffff166108fc829081150290604051600060405180830381858888f193505050501580156110c9573d6000803e3d6000fd5b5050505b505050565b600062015180830290506110e78482846110ed565b50505050565b600033905060006110fd8261095f565b90506000811161110c57600080fd5b6000611117836103c1565b905081848201111561112857600080fd5b83600460008573ffffffffffffffffffffffffffffffffffffffff1673ffffffffffffffffffffffffffffffffffffffff16815260200190815260200160002060008282540192505081905550600085420190506001600360008673ffffffffffffffffffffffffffffffffffffffff1673ffffffffffffffffffffffffffffffffffffffff168152602001908152602001600020600082825401925050819055506000600360008673ffffffffffffffffffffffffffffffffffffffff1673ffffffffffffffffffffffffffffffffffffffff1681526020019081526020016000205490506112166113ec565b6040518060c001604052808381526020018773ffffffffffffffffffffffffffffffffffffffff1681526020018a73ffffffffffffffffffffffffffffffffffffffff168152602001848152602001888152602001600015158152509050806000808873ffffffffffffffffffffffffffffffffffffffff1673ffffffffffffffffffffffffffffffffffffffff16815260200190815260200160002060008481526020019081526020016000206000820151816000015560208201518160010160006101000a81548173ffffffffffffffffffffffffffffffffffffffff021916908373ffffffffffffffffffffffffffffffffffffffff16021790555060408201518160020160006101000a81548173ffffffffffffffffffffffffffffffffffffffff021916908373ffffffffffffffffffffffffffffffffffffffff160217905550606082015181600301556080820151816004015560a08201518160050160006101000a81548160ff0219169083151502179055509050506001600260008873ffffffffffffffffffffffffffffffffffffffff1673ffffffffffffffffffffffffffffffffffffffff16815260200190815260200160002060008282540192505081905550505050505050505050565b6040518060c0016040528060008152602001600073ffffffffffffffffffffffffffffffffffffffff168152602001600073ffffffffffffffffffffffffffffffffffffffff16815260200160008152602001600081526020016000151581525090565b60008135905061145f8161167a565b92915050565b60008135905061147481611691565b92915050565b60006020828403121561148c57600080fd5b600061149a84828501611450565b91505092915050565b6000806000606084860312156114b857600080fd5b60006114c686828701611450565b93505060206114d786828701611465565b92505060406114e886828701611465565b9150509250925092565b60006020828403121561150457600080fd5b600061151284828501611465565b91505092915050565b61152481611632565b82525050565b61153381611644565b82525050565b61154281611644565b82525050565b60c08201600082015161155e60008501826115c3565b506020820151611571602085018261151b565b506040820151611584604085018261151b565b50606082015161159760608501826115c3565b5060808201516115aa60808501826115c3565b5060a08201516115bd60a085018261152a565b50505050565b6115cc81611670565b82525050565b6115db81611670565b82525050565b60006020820190506115f66000830184611539565b92915050565b600060c0820190506116116000830184611548565b92915050565b600060208201905061162c60008301846115d2565b92915050565b600061163d82611650565b9050919050565b60008115159050919050565b600073ffffffffffffffffffffffffffffffffffffffff82169050919050565b6000819050919050565b61168381611632565b811461168e57600080fd5b50565b61169a81611670565b81146116a557600080fd5b5056fea264697066735822122095a209de063b470c1aed5b8c07844c6d902f10ccd04f48345326d860d8503d2864736f6c634300060c0033",
  "immutableReferences": {},
  "source": "// SPDX-License-Identifier: GPL-3.0\r\npragma solidity >=0.4.22 <0.8.0;\r\npragma experimental ABIEncoderV2;\r\n\r\ncontract DisburseV1 {\r\n \r\n     struct Beneficiary { \r\n        uint256 id;\r\n        address trustAddress;\r\n        address beneficiaryAddress;\r\n        uint256 disburseDate;\r\n        uint256 amount;\r\n        bool complete;\r\n    }\r\n\r\n    // Mapping that outlines how funds should be disbursed to beneficiaries\r\n    mapping(address => mapping(uint256 => Beneficiary)) beneficiaries;\r\n\r\n    // Mapping that records total trust balance\r\n    mapping(address => uint256) trustBalance;\r\n    \r\n    // Mapping to record total beneficiaries for each trust\r\n    mapping(address => uint256) beneficiaryCount;\r\n\r\n    // Mapping to record total beneficiaries for each trust\r\n    mapping(address => uint256) topBeneficiaryId;\r\n\r\n    // Mapping the current beneficiary balance, which may be less than the trust balance\r\n    mapping(address => uint256) beneficiaryBalance;\r\n\r\n    function contributeToTrust() public payable {\r\n        trustBalance[msg.sender] += msg.value;  // Add funds to any previous funds\r\n    }\r\n\r\n    function getTrustBalance(address _trustAddress) public view returns(uint256 _balance) {\r\n        _balance = trustBalance[_trustAddress];\r\n    }\r\n\r\n    function withdrawTrustBalance() public {\r\n        trustBalance[msg.sender] = 0;\r\n        msg.sender.transfer(address(this).balance);\r\n    }\r\n\r\n    function withdrawAmountFromTrustBalance(uint256 _amount) public {\r\n        trustBalance[msg.sender] -= _amount;\r\n        msg.sender.transfer(_amount);\r\n    }\r\n\r\n    function getBeneficiaryBalance(address _trustAddress) public view returns(uint256 _balance) {\r\n        _balance = beneficiaryBalance[_trustAddress];\r\n    }\r\n\r\n    function getContractBalance() public view returns(uint256 _balance) {\r\n        _balance = address(this).balance;\r\n    }\r\n\r\n    function addBeneficiarySeconds(address _beneficiaryAddress, uint256 _seconds, uint256 _amount) public {\r\n        addBeneficiary(_beneficiaryAddress, _seconds, _amount);\r\n    }\r\n\r\n    function addBeneficiaryDays(address _beneficiaryAddress, uint256 _days, uint256 _amount) public {\r\n        uint256 sec =  _days * 86400;               // Determine number of seconds\r\n        addBeneficiary(_beneficiaryAddress, sec, _amount);\r\n    }\r\n\r\n    function addBeneficiary(address _beneficiaryAddress, uint256 _seconds, uint256 _amount) public {\r\n        \r\n        // Only trust owner can add beneficiary \r\n        address trustAddress = msg.sender;\r\n        \r\n        // Ensure trust has been previously intiated\r\n        uint256 trustAmount = getTrustBalance(trustAddress);\r\n        require(trustAmount > 0);\r\n        \r\n        // Ensure trust has sufficient funds to disburse to beneficiary\r\n        uint256 beneficiaryAmount = getBeneficiaryBalance(trustAddress);\r\n        require (beneficiaryAmount + _amount <= trustAmount);\r\n        \r\n        // Update total beneficiary amount\r\n        beneficiaryBalance[trustAddress] += _amount;\r\n\r\n        // Determine beneficiary disbursement date\r\n        uint256 delayInSeconds = block.timestamp + _seconds;\r\n\r\n        // Update to next available beneficiary id\r\n        // NOTE: Id's cannot start at 0, otherwise the return id of an existing\r\n        // address and non-existing address will look the same\r\n        topBeneficiaryId[trustAddress] += 1;\r\n\r\n        // Get beneficiary id\r\n        uint256 id = topBeneficiaryId[trustAddress];\r\n        \r\n        // Create new beneficiary\r\n        Beneficiary memory beneficiary = Beneficiary(\r\n                                            id,\r\n                                            trustAddress, \r\n                                            _beneficiaryAddress, \r\n                                            delayInSeconds, \r\n                                            _amount, \r\n                                            false);\r\n        \r\n        // Every key maps to something. If no value has been set yet, then the value is 0. \r\n        beneficiaries[trustAddress][id] = beneficiary;\r\n        \r\n        // Update total number of beneficiaries this trust is managing\r\n        beneficiaryCount[trustAddress] += 1;\r\n    }\r\n    \r\n    // Retrieve total number of beneficiaries of a partricular trust account\r\n    function getBeneficiaryCount() public view returns(uint256 _count) {\r\n        _count = beneficiaryCount[msg.sender];\r\n    }\r\n\r\n    // Counter that increments the id's of beneficiaries\r\n    function getTopBeneficiaryId() public view returns(uint256 _count) {\r\n        _count = topBeneficiaryId[msg.sender];\r\n    }\r\n\r\n    // Remove beneficiary at a unique id\r\n    function removeBeneficiary(uint256 _id) public {\r\n        // Retrieve beneficiary address\r\n        Beneficiary memory beneficiary = beneficiaries[msg.sender][_id];\r\n\r\n        if (beneficiary.id == _id){\r\n            // Reduce total beneficiary claims\r\n            beneficiaryBalance[msg.sender] -= beneficiary.amount;\r\n            \r\n            // Update total number of beneficiaries this trust is managing\r\n            beneficiaryCount[msg.sender] -= 1;\r\n\r\n            // will delete the struct\r\n            delete beneficiaries[msg.sender][_id];\r\n        }\r\n    }\r\n\r\n    // Retrieve beneficiary based on it's unique id\r\n    function getBeneficiary(uint256 _id) public view returns(Beneficiary memory _beneficiary) {\r\n        // Only trust owner can get details of beneficiary\r\n        _beneficiary = beneficiaries[msg.sender][_id];\r\n    }\r\n    \r\n    // What happens if we have the same beneficiary Address on two different disbursement dates?\r\n    // This implies there is more than one idea associated with an address.\r\n\r\n    function getBeneficiaryId(address _beneficiaryAddress) public view returns(uint256 _id) {\r\n        \r\n        // NOTE: Id's cannot be zero indexed, otherwise the return id of an existing\r\n        // address and non-existing address will look the same\r\n        \r\n        // Retrieve the Id of the last most beneficiary\r\n        uint256 topId = topBeneficiaryId[msg.sender];\r\n        \r\n        for (uint256 id = 0; id <= topId; id++){\r\n            Beneficiary memory beneficiary = beneficiaries[msg.sender][id];\r\n            \r\n            if (beneficiary.beneficiaryAddress == _beneficiaryAddress){\r\n                _id = beneficiary.id;\r\n                break;\r\n            }\r\n        }\r\n    }\r\n\r\n    // Determine if the disbursement date has passed\r\n    function readyToDisburse(uint256 _id) public view returns (bool) {\r\n        \r\n        Beneficiary memory beneficiary = beneficiaries[msg.sender][_id];\r\n        \r\n        // Ensure deadline has been set && has passed\r\n        if (beneficiary.disburseDate != 0 && block.timestamp >= beneficiary.disburseDate) return true; \r\n\r\n        return false; \r\n    }  \r\n\r\n    // TODO: This function should be callable anyone, including an external job\r\n    // As coded, this function is only callable by the trust owner\r\n    // Beneficiary id's are not known by the general public\r\n    function disburseFunds(uint256 _id) public {\r\n        \r\n        Beneficiary memory beneficiary = beneficiaries[msg.sender][_id];\r\n        bool passedDisbursementDate = readyToDisburse(_id);\r\n\r\n        if (beneficiary.complete == false && passedDisbursementDate) {\r\n            \r\n            address payable beneficiaryAddress = payable(beneficiary.beneficiaryAddress);\r\n            uint256 amount = beneficiary.amount;\r\n            \r\n            // Reduce trust balance\r\n            trustBalance[beneficiary.trustAddress] -= amount;\r\n            \r\n            // Reduce total beneficiary claims\r\n            beneficiaryBalance[beneficiary.trustAddress] -= amount;\r\n            \r\n            // Set the complete flag to true\r\n            beneficiaries[beneficiary.trustAddress][_id].complete = true;\r\n\r\n            // Finally, disburse funds to beneficiary\r\n            beneficiaryAddress.transfer(amount);\r\n        }\r\n    }\r\n}",
  "sourcePath": "D:/Code/app/contracts/DisburseV1.sol",
  "compiler": {
    "name": "solc",
    "version": "0.6.12+commit.27d51765.Emscripten.clang"
  },
  "schemaVersion": "3.3.2",
  "updatedAt": "2020-12-23T06:54:17.541Z",
  "networkType": "ethereum",
  "devdoc": {
    "kind": "dev",
    "methods": {},
    "version": 1
  },
  "userdoc": {
    "kind": "user",
    "methods": {},
    "version": 1
  }
}