{
  "contractName": "DisburseV1",
  "abi": [
    {
      "inputs": [],
      "name": "contributeToTrust",
      "outputs": [],
      "stateMutability": "payable",
      "type": "function",
      "payable": true
    },
    {
      "inputs": [
        {
          "internalType": "address",
          "name": "_trustAddress",
          "type": "address"
        }
      ],
      "name": "getTrustBalance",
      "outputs": [
        {
          "internalType": "uint256",
          "name": "_balance",
          "type": "uint256"
        }
      ],
      "stateMutability": "view",
      "type": "function",
      "constant": true
    },
    {
      "inputs": [],
      "name": "withdrawTrustBalance",
      "outputs": [],
      "stateMutability": "nonpayable",
      "type": "function"
    },
    {
      "inputs": [],
      "name": "getContractBalance",
      "outputs": [
        {
          "internalType": "uint256",
          "name": "_balance",
          "type": "uint256"
        }
      ],
      "stateMutability": "view",
      "type": "function",
      "constant": true
    },
    {
      "inputs": [
        {
          "internalType": "address",
          "name": "_beneficiaryAddress",
          "type": "address"
        },
        {
          "internalType": "uint256",
          "name": "_seconds",
          "type": "uint256"
        },
        {
          "internalType": "uint256",
          "name": "_amount",
          "type": "uint256"
        }
      ],
      "name": "addBeneficiarySeconds",
      "outputs": [],
      "stateMutability": "nonpayable",
      "type": "function"
    },
    {
      "inputs": [
        {
          "internalType": "address",
          "name": "_beneficiaryAddress",
          "type": "address"
        },
        {
          "internalType": "uint256",
          "name": "_days",
          "type": "uint256"
        },
        {
          "internalType": "uint256",
          "name": "_amount",
          "type": "uint256"
        }
      ],
      "name": "addBeneficiaryDays",
      "outputs": [],
      "stateMutability": "nonpayable",
      "type": "function"
    },
    {
      "inputs": [
        {
          "internalType": "address",
          "name": "_beneficiaryAddress",
          "type": "address"
        }
      ],
      "name": "getBeneficiary",
      "outputs": [
        {
          "components": [
            {
              "internalType": "address",
              "name": "trust",
              "type": "address"
            },
            {
              "internalType": "uint256",
              "name": "disburseDate",
              "type": "uint256"
            },
            {
              "internalType": "uint256",
              "name": "amount",
              "type": "uint256"
            },
            {
              "internalType": "bool",
              "name": "backup",
              "type": "bool"
            },
            {
              "internalType": "bool",
              "name": "invest",
              "type": "bool"
            }
          ],
          "internalType": "struct DisburseV1.Beneficiary",
          "name": "_beneficiary",
          "type": "tuple"
        }
      ],
      "stateMutability": "view",
      "type": "function",
      "constant": true
    },
    {
      "inputs": [
        {
          "internalType": "address",
          "name": "_beneficiaryAddress",
          "type": "address"
        }
      ],
      "name": "deadlinePassed",
      "outputs": [
        {
          "internalType": "bool",
          "name": "",
          "type": "bool"
        }
      ],
      "stateMutability": "view",
      "type": "function",
      "constant": true
    },
    {
      "inputs": [
        {
          "internalType": "address payable",
          "name": "_beneficiaryAddress",
          "type": "address"
        }
      ],
      "name": "disburseFunds",
      "outputs": [],
      "stateMutability": "nonpayable",
      "type": "function"
    }
  ],
  "bytecode": "0x608060405234801561001057600080fd5b50610c59806100206000396000f3fe6080604052600436106100865760003560e01c806376681a911161005957806376681a911461013a578063b6f5752114610163578063b8d88ac61461018c578063e1f3f469146101a3578063e9207937146101cc57610086565b8063505a1b311461008b578063539d83c6146100c85780635b8d9658146101055780636f9fb98a1461010f575b600080fd5b34801561009757600080fd5b506100b260048036038101906100ad91906109df565b610209565b6040516100bf9190610b4e565b60405180910390f35b3480156100d457600080fd5b506100ef60048036038101906100ea91906109df565b61033e565b6040516100fc9190610b69565b60405180910390f35b61010d610387565b005b34801561011b57600080fd5b506101246103d6565b6040516101319190610b69565b60405180910390f35b34801561014657600080fd5b50610161600480360381019061015c9190610a31565b6103de565b005b34801561016f57600080fd5b5061018a60048036038101906101859190610a08565b6103ee565b005b34801561019857600080fd5b506101a161061d565b005b3480156101af57600080fd5b506101ca60048036038101906101c59190610a31565b6106ab565b005b3480156101d857600080fd5b506101f360048036038101906101ee91906109df565b6106c6565b6040516102009190610b33565b60405180910390f35b610211610957565b6000803373ffffffffffffffffffffffffffffffffffffffff1673ffffffffffffffffffffffffffffffffffffffff16815260200190815260200160002060008373ffffffffffffffffffffffffffffffffffffffff1673ffffffffffffffffffffffffffffffffffffffff1681526020019081526020016000206040518060a00160405290816000820160009054906101000a900473ffffffffffffffffffffffffffffffffffffffff1673ffffffffffffffffffffffffffffffffffffffff1673ffffffffffffffffffffffffffffffffffffffff16815260200160018201548152602001600282015481526020016003820160009054906101000a900460ff161515151581526020016003820160019054906101000a900460ff1615151515815250509050919050565b6000600160008373ffffffffffffffffffffffffffffffffffffffff1673ffffffffffffffffffffffffffffffffffffffff168152602001908152602001600020549050919050565b34600160003373ffffffffffffffffffffffffffffffffffffffff1673ffffffffffffffffffffffffffffffffffffffff16815260200190815260200160002060008282540192505081905550565b600047905090565b6103e983838361070e565b505050565b60006103f9826106c6565b9050801561061957610409610957565b61041283610209565b90506000816040015190508060016000846000015173ffffffffffffffffffffffffffffffffffffffff1673ffffffffffffffffffffffffffffffffffffffff168152602001908152602001600020600082825403925050819055508060026000846000015173ffffffffffffffffffffffffffffffffffffffff1673ffffffffffffffffffffffffffffffffffffffff168152602001908152602001600020600082825403925050819055506000806000846000015173ffffffffffffffffffffffffffffffffffffffff1673ffffffffffffffffffffffffffffffffffffffff16815260200190815260200160002060008673ffffffffffffffffffffffffffffffffffffffff1673ffffffffffffffffffffffffffffffffffffffff168152602001908152602001600020600201819055506000806000846000015173ffffffffffffffffffffffffffffffffffffffff1673ffffffffffffffffffffffffffffffffffffffff16815260200190815260200160002060008673ffffffffffffffffffffffffffffffffffffffff1673ffffffffffffffffffffffffffffffffffffffff168152602001908152602001600020600101819055508373ffffffffffffffffffffffffffffffffffffffff166108fc829081150290604051600060405180830381858888f19350505050158015610615573d6000803e3d6000fd5b5050505b5050565b6000600160003373ffffffffffffffffffffffffffffffffffffffff1673ffffffffffffffffffffffffffffffffffffffff168152602001908152602001600020819055503373ffffffffffffffffffffffffffffffffffffffff166108fc479081150290604051600060405180830381858888f193505050501580156106a8573d6000803e3d6000fd5b50565b600062015180830290506106c084828461070e565b50505050565b60006106d0610957565b6106d983610209565b905060008160200151141580156106f4575080602001514210155b15610703576001915050610709565b60009150505b919050565b6000339050600061071e8261033e565b90506000811161072d57600080fd5b60006107388361090e565b905081848201111561074957600080fd5b83600260008573ffffffffffffffffffffffffffffffffffffffff1673ffffffffffffffffffffffffffffffffffffffff16815260200190815260200160002060008282540192505081905550600085420190506107a5610957565b6040518060a001604052808673ffffffffffffffffffffffffffffffffffffffff168152602001838152602001878152602001600015158152602001600015158152509050806000808773ffffffffffffffffffffffffffffffffffffffff1673ffffffffffffffffffffffffffffffffffffffff16815260200190815260200160002060008a73ffffffffffffffffffffffffffffffffffffffff1673ffffffffffffffffffffffffffffffffffffffff16815260200190815260200160002060008201518160000160006101000a81548173ffffffffffffffffffffffffffffffffffffffff021916908373ffffffffffffffffffffffffffffffffffffffff160217905550602082015181600101556040820151816002015560608201518160030160006101000a81548160ff02191690831515021790555060808201518160030160016101000a81548160ff0219169083151502179055509050505050505050505050565b6000600260008373ffffffffffffffffffffffffffffffffffffffff1673ffffffffffffffffffffffffffffffffffffffff168152602001908152602001600020549050919050565b6040518060a00160405280600073ffffffffffffffffffffffffffffffffffffffff16815260200160008152602001600081526020016000151581526020016000151581525090565b6000813590506109af81610bde565b92915050565b6000813590506109c481610bf5565b92915050565b6000813590506109d981610c0c565b92915050565b6000602082840312156109f157600080fd5b60006109ff848285016109a0565b91505092915050565b600060208284031215610a1a57600080fd5b6000610a28848285016109b5565b91505092915050565b600080600060608486031215610a4657600080fd5b6000610a54868287016109a0565b9350506020610a65868287016109ca565b9250506040610a76868287016109ca565b9150509250925092565b610a8981610b84565b82525050565b610a9881610ba8565b82525050565b610aa781610ba8565b82525050565b60a082016000820151610ac36000850182610a80565b506020820151610ad66020850182610b15565b506040820151610ae96040850182610b15565b506060820151610afc6060850182610a8f565b506080820151610b0f6080850182610a8f565b50505050565b610b1e81610bd4565b82525050565b610b2d81610bd4565b82525050565b6000602082019050610b486000830184610a9e565b92915050565b600060a082019050610b636000830184610aad565b92915050565b6000602082019050610b7e6000830184610b24565b92915050565b6000610b8f82610bb4565b9050919050565b6000610ba182610bb4565b9050919050565b60008115159050919050565b600073ffffffffffffffffffffffffffffffffffffffff82169050919050565b6000819050919050565b610be781610b84565b8114610bf257600080fd5b50565b610bfe81610b96565b8114610c0957600080fd5b50565b610c1581610bd4565b8114610c2057600080fd5b5056fea2646970667358221220545e1f7cedda6b661fce79f66f651881765b30314eb548beae0828b0be2c068964736f6c634300060c0033",
  "immutableReferences": {},
  "source": "// SPDX-License-Identifier: GPL-3.0\r\npragma solidity >=0.4.22 <0.8.0;\r\npragma experimental ABIEncoderV2;\r\n\r\ncontract DisburseV1 {\r\n \r\n     struct Beneficiary { \r\n        address trust;\r\n        uint256 disburseDate;\r\n        uint256 amount;\r\n        bool backup;\r\n        bool invest;\r\n    }\r\n\r\n    // Mapping that outlines how funds should be disbursed to beneficiaries\r\n    mapping(address => mapping(address => Beneficiary)) beneficiaries;\r\n\r\n    // Mapping that records total trust balance\r\n    mapping(address => uint256) trustBalance;\r\n    \r\n    // Mapping the current beneficiary balance, which may be less than the trust balance\r\n    mapping(address => uint256) beneficiaryBalance;\r\n\r\n    function contributeToTrust() public payable {\r\n        trustBalance[msg.sender] += msg.value;  // Add funds to any previous funds\r\n    }\r\n\r\n    function getTrustBalance(address _trustAddress) public view returns(uint256 _balance) {\r\n        _balance = trustBalance[_trustAddress];\r\n    }\r\n\r\n    function withdrawTrustBalance() public {\r\n        trustBalance[msg.sender] = 0;\r\n        msg.sender.transfer(address(this).balance);\r\n    }\r\n\r\n    function getBeneficiaryBalance(address _trustAddress) internal view returns(uint256 _balance) {\r\n        _balance = beneficiaryBalance[_trustAddress];\r\n    }\r\n\r\n    function getContractBalance() public view returns(uint256 _balance) {\r\n        _balance = address(this).balance;\r\n    }\r\n\r\n    function addBeneficiarySeconds(address _beneficiaryAddress, uint256 _seconds, uint256 _amount) public {\r\n        addBeneficiary(_beneficiaryAddress, _seconds, _amount);\r\n    }\r\n\r\n    function addBeneficiaryDays(address _beneficiaryAddress, uint256 _days, uint256 _amount) public {\r\n        uint256 sec =  _days * 86400;               // Determine number of seconds\r\n        addBeneficiary(_beneficiaryAddress, sec, _amount);\r\n    }\r\n\r\n    function addBeneficiary(address _beneficiaryAddress, uint256 _seconds, uint256 _amount) internal {\r\n        \r\n        // Only trust owner can add beneficiary \r\n        address trustAddress = msg.sender;\r\n        \r\n        // Ensure trust has been previously intiated\r\n        uint256 trustAmount = getTrustBalance(trustAddress);\r\n        require(trustAmount > 0);\r\n        \r\n        // Ensure trust has sufficient funds to disburse to beneficiary\r\n        uint256 beneficiaryAmount = getBeneficiaryBalance(trustAddress);\r\n        require (beneficiaryAmount + _amount <= trustAmount);\r\n        \r\n        // Update total beneficiary amount\r\n        beneficiaryBalance[trustAddress] += _amount;\r\n\r\n        // Determine beneficiary disbursement date\r\n        uint256 deadline = block.timestamp + _seconds;\r\n\r\n        // Create new beneficiary\r\n        Beneficiary memory beneficiary = Beneficiary(trustAddress, deadline, _amount, false, false);\r\n        \r\n        // Add beneficiary to trust\r\n        beneficiaries[trustAddress][_beneficiaryAddress] = beneficiary;\r\n    }\r\n    \r\n    function getBeneficiary(address _beneficiaryAddress) public view returns(Beneficiary memory _beneficiary) {\r\n        // Only trust owner can get details of beneficiary\r\n        _beneficiary = beneficiaries[msg.sender][_beneficiaryAddress];\r\n    }\r\n    \r\n    function deadlinePassed(address _beneficiaryAddress) public view returns (bool) {\r\n        \r\n        Beneficiary memory beneficiary = getBeneficiary(_beneficiaryAddress);\r\n        \r\n        // Ensure deadline has been set && has passed\r\n        if (beneficiary.disburseDate != 0 && block.timestamp >= beneficiary.disburseDate) return true; \r\n\r\n        return false; \r\n    }\r\n    \r\n    // This function should be callable anyone, including an external job\r\n    function disburseFunds(address payable _beneficiaryAddress) public {\r\n        \r\n        bool passed = deadlinePassed(_beneficiaryAddress);\r\n        \r\n        if (passed) {\r\n            \r\n            Beneficiary memory beneficiary = getBeneficiary(_beneficiaryAddress);\r\n            uint256 disburseAmount = beneficiary.amount;\r\n            \r\n            // Reduce trust balance\r\n            trustBalance[beneficiary.trust] -= disburseAmount;\r\n            \r\n            // Reduce total beneficiary claims\r\n            beneficiaryBalance[beneficiary.trust] -= disburseAmount;\r\n            \r\n            // Reset the beneficiary amount and disbursement date\r\n            beneficiaries[beneficiary.trust][_beneficiaryAddress].amount = 0;\r\n            beneficiaries[beneficiary.trust][_beneficiaryAddress].disburseDate = 0;\r\n        \r\n            // Finally, disburse funds to beneficiary\r\n            _beneficiaryAddress.transfer(disburseAmount);\r\n        }\r\n    }\r\n}",
  "sourcePath": "D:/Code/app/contracts/DisburseV1.sol",
  "compiler": {
    "name": "solc",
    "version": "0.6.12+commit.27d51765.Emscripten.clang"
  },
  "schemaVersion": "3.3.2",
  "updatedAt": "2020-12-18T19:59:35.311Z",
  "networkType": "ethereum",
  "devdoc": {
    "kind": "dev",
    "methods": {},
    "version": 1
  },
  "userdoc": {
    "kind": "user",
    "methods": {},
    "version": 1
  }
}