{
  "contractName": "DisburseV1",
  "abi": [
    {
      "anonymous": false,
      "inputs": [
        {
          "indexed": false,
          "internalType": "bool",
          "name": "flag",
          "type": "bool"
        }
      ],
      "name": "CancelAllowed",
      "type": "event"
    },
    {
      "anonymous": false,
      "inputs": [
        {
          "indexed": false,
          "internalType": "address",
          "name": "from",
          "type": "address"
        },
        {
          "indexed": false,
          "internalType": "address",
          "name": "to",
          "type": "address"
        },
        {
          "indexed": false,
          "internalType": "uint256",
          "name": "amount",
          "type": "uint256"
        }
      ],
      "name": "DisburseFundsEvent",
      "type": "event"
    },
    {
      "anonymous": false,
      "inputs": [
        {
          "indexed": false,
          "internalType": "bool",
          "name": "flag",
          "type": "bool"
        }
      ],
      "name": "DisbursementCompleteEvent",
      "type": "event"
    },
    {
      "anonymous": false,
      "inputs": [
        {
          "indexed": false,
          "internalType": "bool",
          "name": "flag",
          "type": "bool"
        }
      ],
      "name": "DisbursementReadyEvent",
      "type": "event"
    },
    {
      "anonymous": false,
      "inputs": [
        {
          "indexed": false,
          "internalType": "bool",
          "name": "flag",
          "type": "bool"
        }
      ],
      "name": "RemoveBeneficiary",
      "type": "event"
    },
    {
      "inputs": [
        {
          "internalType": "address",
          "name": "",
          "type": "address"
        }
      ],
      "name": "disbursementCount",
      "outputs": [
        {
          "internalType": "uint256",
          "name": "",
          "type": "uint256"
        }
      ],
      "stateMutability": "view",
      "type": "function",
      "constant": true
    },
    {
      "inputs": [
        {
          "internalType": "address",
          "name": "",
          "type": "address"
        },
        {
          "internalType": "uint256",
          "name": "",
          "type": "uint256"
        }
      ],
      "name": "disbursements",
      "outputs": [
        {
          "internalType": "uint256",
          "name": "id",
          "type": "uint256"
        },
        {
          "internalType": "address",
          "name": "trustAddress",
          "type": "address"
        },
        {
          "internalType": "uint256",
          "name": "beneficiaryId",
          "type": "uint256"
        }
      ],
      "stateMutability": "view",
      "type": "function",
      "constant": true
    },
    {
      "inputs": [
        {
          "internalType": "address",
          "name": "",
          "type": "address"
        }
      ],
      "name": "topDisbursementId",
      "outputs": [
        {
          "internalType": "uint256",
          "name": "",
          "type": "uint256"
        }
      ],
      "stateMutability": "view",
      "type": "function",
      "constant": true
    },
    {
      "inputs": [],
      "name": "contributeToTrust",
      "outputs": [],
      "stateMutability": "payable",
      "type": "function",
      "payable": true
    },
    {
      "inputs": [
        {
          "internalType": "address",
          "name": "_trustAddress",
          "type": "address"
        }
      ],
      "name": "getTrustBalance",
      "outputs": [
        {
          "internalType": "uint256",
          "name": "_balance",
          "type": "uint256"
        }
      ],
      "stateMutability": "view",
      "type": "function",
      "constant": true
    },
    {
      "inputs": [],
      "name": "withdrawTrustBalance",
      "outputs": [],
      "stateMutability": "nonpayable",
      "type": "function"
    },
    {
      "inputs": [
        {
          "internalType": "uint256",
          "name": "_amount",
          "type": "uint256"
        }
      ],
      "name": "withdrawAmountFromTrustBalance",
      "outputs": [],
      "stateMutability": "nonpayable",
      "type": "function"
    },
    {
      "inputs": [
        {
          "internalType": "address",
          "name": "_trustAddress",
          "type": "address"
        }
      ],
      "name": "getBeneficiaryBalance",
      "outputs": [
        {
          "internalType": "uint256",
          "name": "_balance",
          "type": "uint256"
        }
      ],
      "stateMutability": "view",
      "type": "function",
      "constant": true
    },
    {
      "inputs": [],
      "name": "getContractBalance",
      "outputs": [
        {
          "internalType": "uint256",
          "name": "_balance",
          "type": "uint256"
        }
      ],
      "stateMutability": "view",
      "type": "function",
      "constant": true
    },
    {
      "inputs": [
        {
          "internalType": "address",
          "name": "_beneficiaryAddress",
          "type": "address"
        },
        {
          "internalType": "uint256",
          "name": "_seconds",
          "type": "uint256"
        },
        {
          "internalType": "uint256",
          "name": "_amount",
          "type": "uint256"
        },
        {
          "internalType": "bool",
          "name": "_cancelAllowed",
          "type": "bool"
        }
      ],
      "name": "addBeneficiarySeconds",
      "outputs": [],
      "stateMutability": "nonpayable",
      "type": "function"
    },
    {
      "inputs": [
        {
          "internalType": "address",
          "name": "_beneficiaryAddress",
          "type": "address"
        },
        {
          "internalType": "uint256",
          "name": "_days",
          "type": "uint256"
        },
        {
          "internalType": "uint256",
          "name": "_amount",
          "type": "uint256"
        },
        {
          "internalType": "bool",
          "name": "_cancelAllowed",
          "type": "bool"
        }
      ],
      "name": "addBeneficiaryDays",
      "outputs": [],
      "stateMutability": "nonpayable",
      "type": "function"
    },
    {
      "inputs": [
        {
          "internalType": "address",
          "name": "_beneficiaryAddress",
          "type": "address"
        },
        {
          "internalType": "uint256",
          "name": "_seconds",
          "type": "uint256"
        },
        {
          "internalType": "uint256",
          "name": "_amount",
          "type": "uint256"
        },
        {
          "internalType": "bool",
          "name": "_cancelAllowed",
          "type": "bool"
        }
      ],
      "name": "addBeneficiary",
      "outputs": [],
      "stateMutability": "nonpayable",
      "type": "function"
    },
    {
      "inputs": [],
      "name": "getBeneficiaryCount",
      "outputs": [
        {
          "internalType": "uint256",
          "name": "_count",
          "type": "uint256"
        }
      ],
      "stateMutability": "view",
      "type": "function",
      "constant": true
    },
    {
      "inputs": [],
      "name": "getTopBeneficiaryId",
      "outputs": [
        {
          "internalType": "uint256",
          "name": "_count",
          "type": "uint256"
        }
      ],
      "stateMutability": "view",
      "type": "function",
      "constant": true
    },
    {
      "inputs": [
        {
          "internalType": "uint256",
          "name": "_id",
          "type": "uint256"
        }
      ],
      "name": "getBeneficiary",
      "outputs": [
        {
          "components": [
            {
              "internalType": "uint256",
              "name": "id",
              "type": "uint256"
            },
            {
              "internalType": "address",
              "name": "trustAddress",
              "type": "address"
            },
            {
              "internalType": "address",
              "name": "beneficiaryAddress",
              "type": "address"
            },
            {
              "internalType": "uint256",
              "name": "disburseDate",
              "type": "uint256"
            },
            {
              "internalType": "uint256",
              "name": "amount",
              "type": "uint256"
            },
            {
              "internalType": "bool",
              "name": "cancelAllowed",
              "type": "bool"
            },
            {
              "internalType": "bool",
              "name": "complete",
              "type": "bool"
            }
          ],
          "internalType": "struct DisburseV1.Beneficiary",
          "name": "_beneficiary",
          "type": "tuple"
        }
      ],
      "stateMutability": "view",
      "type": "function",
      "constant": true
    },
    {
      "inputs": [
        {
          "internalType": "address",
          "name": "_beneficiaryAddress",
          "type": "address"
        }
      ],
      "name": "getBeneficiaryId",
      "outputs": [
        {
          "internalType": "uint256",
          "name": "_id",
          "type": "uint256"
        }
      ],
      "stateMutability": "view",
      "type": "function",
      "constant": true
    },
    {
      "inputs": [
        {
          "internalType": "address",
          "name": "_trustAddress",
          "type": "address"
        },
        {
          "internalType": "uint256",
          "name": "_beneficiaryId",
          "type": "uint256"
        }
      ],
      "name": "getDisbursementId",
      "outputs": [
        {
          "internalType": "uint256",
          "name": "_id",
          "type": "uint256"
        }
      ],
      "stateMutability": "view",
      "type": "function",
      "constant": true
    },
    {
      "inputs": [
        {
          "internalType": "address",
          "name": "_trustAddress",
          "type": "address"
        },
        {
          "internalType": "uint256",
          "name": "_id",
          "type": "uint256"
        }
      ],
      "name": "readyToDisburse",
      "outputs": [
        {
          "internalType": "bool",
          "name": "",
          "type": "bool"
        }
      ],
      "stateMutability": "view",
      "type": "function",
      "constant": true
    },
    {
      "inputs": [
        {
          "internalType": "address",
          "name": "_trustAddress",
          "type": "address"
        },
        {
          "internalType": "uint256",
          "name": "_beneficiaryId",
          "type": "uint256"
        }
      ],
      "name": "disburseFunds",
      "outputs": [],
      "stateMutability": "nonpayable",
      "type": "function"
    },
    {
      "inputs": [
        {
          "internalType": "uint256",
          "name": "_beneficiaryId",
          "type": "uint256"
        }
      ],
      "name": "removeBeneficiary",
      "outputs": [],
      "stateMutability": "nonpayable",
      "type": "function"
    }
  ],
  "bytecode": "0x608060405234801561001057600080fd5b5061222e806100206000396000f3fe60806040526004361061011f5760003560e01c80639a6e7fd1116100a0578063d3df982711610064578063d3df9827146103da578063de9723ed14610417578063f552cc7d14610440578063fae568091461047d578063fd1c02c5146104a65761011f565b80639a6e7fd11461031b578063ad48e2a214610346578063b0ac91021461036f578063b8d88ac61461039a578063cfd0344d146103b15761011f565b80635b8d9658116100e75780635b8d96581461024157806363871d251461024b5780636f9fb98a14610274578063799575c21461029f5780637a153043146102dc5761011f565b806307bcb6ef146101245780630a455f6a146101615780632d7729921461019e578063302df083146101c7578063539d83c614610204575b600080fd5b34801561013057600080fd5b5061014b60048036038101906101469190611ed3565b6104e3565b6040516101589190612119565b60405180910390f35b34801561016d57600080fd5b5061018860048036038101906101839190611ed3565b61052c565b6040516101959190612119565b60405180910390f35b3480156101aa57600080fd5b506101c560048036038101906101c09190611f9b565b61074d565b005b3480156101d357600080fd5b506101ee60048036038101906101e99190611f9b565b6107e4565b6040516101fb91906120fe565b60405180910390f35b34801561021057600080fd5b5061022b60048036038101906102269190611ed3565b61094d565b6040516102389190612119565b60405180910390f35b610249610996565b005b34801561025757600080fd5b50610272600480360381019061026d9190611f9b565b6109e5565b005b34801561028057600080fd5b50610289610e6b565b6040516102969190612119565b60405180910390f35b3480156102ab57600080fd5b506102c660048036038101906102c19190611efc565b610e73565b6040516102d391906120e3565b60405180910390f35b3480156102e857600080fd5b5061030360048036038101906102fe9190611efc565b61100d565b60405161031293929190612134565b60405180910390f35b34801561032757600080fd5b50610330611064565b60405161033d9190612119565b60405180910390f35b34801561035257600080fd5b5061036d60048036038101906103689190611efc565b6110ab565b005b34801561037b57600080fd5b506103846114fe565b6040516103919190612119565b60405180910390f35b3480156103a657600080fd5b506103af611545565b005b3480156103bd57600080fd5b506103d860048036038101906103d39190611f38565b6115d3565b005b3480156103e657600080fd5b5061040160048036038101906103fc9190611ed3565b6115e5565b60405161040e9190612119565b60405180910390f35b34801561042357600080fd5b5061043e60048036038101906104399190611f38565b6115fd565b005b34801561044c57600080fd5b5061046760048036038101906104629190611ed3565b61161a565b6040516104749190612119565b60405180910390f35b34801561048957600080fd5b506104a4600480360381019061049f9190611f38565b611632565b005b3480156104b257600080fd5b506104cd60048036038101906104c89190611efc565b611964565b6040516104da9190612119565b60405180910390f35b6000600460008373ffffffffffffffffffffffffffffffffffffffff1673ffffffffffffffffffffffffffffffffffffffff168152602001908152602001600020549050919050565b600080600260003373ffffffffffffffffffffffffffffffffffffffff1673ffffffffffffffffffffffffffffffffffffffff16815260200190815260200160002054905060005b81811161074657610583611df0565b6000803373ffffffffffffffffffffffffffffffffffffffff1673ffffffffffffffffffffffffffffffffffffffff16815260200190815260200160002060008381526020019081526020016000206040518060e0016040529081600082015481526020016001820160009054906101000a900473ffffffffffffffffffffffffffffffffffffffff1673ffffffffffffffffffffffffffffffffffffffff1673ffffffffffffffffffffffffffffffffffffffff1681526020016002820160009054906101000a900473ffffffffffffffffffffffffffffffffffffffff1673ffffffffffffffffffffffffffffffffffffffff1673ffffffffffffffffffffffffffffffffffffffff16815260200160038201548152602001600482015481526020016005820160009054906101000a900460ff161515151581526020016005820160019054906101000a900460ff16151515158152505090508473ffffffffffffffffffffffffffffffffffffffff16816040015173ffffffffffffffffffffffffffffffffffffffff161480156107265750600015158160c001511515145b15610738578060000151935050610746565b508080600101915050610574565b5050919050565b80600360003373ffffffffffffffffffffffffffffffffffffffff1673ffffffffffffffffffffffffffffffffffffffff168152602001908152602001600020600082825403925050819055503373ffffffffffffffffffffffffffffffffffffffff166108fc829081150290604051600060405180830381858888f193505050501580156107e0573d6000803e3d6000fd5b5050565b6107ec611df0565b6000803373ffffffffffffffffffffffffffffffffffffffff1673ffffffffffffffffffffffffffffffffffffffff16815260200190815260200160002060008381526020019081526020016000206040518060e0016040529081600082015481526020016001820160009054906101000a900473ffffffffffffffffffffffffffffffffffffffff1673ffffffffffffffffffffffffffffffffffffffff1673ffffffffffffffffffffffffffffffffffffffff1681526020016002820160009054906101000a900473ffffffffffffffffffffffffffffffffffffffff1673ffffffffffffffffffffffffffffffffffffffff1673ffffffffffffffffffffffffffffffffffffffff16815260200160038201548152602001600482015481526020016005820160009054906101000a900460ff161515151581526020016005820160019054906101000a900460ff1615151515815250509050919050565b6000600360008373ffffffffffffffffffffffffffffffffffffffff1673ffffffffffffffffffffffffffffffffffffffff168152602001908152602001600020549050919050565b34600360003373ffffffffffffffffffffffffffffffffffffffff1673ffffffffffffffffffffffffffffffffffffffff16815260200190815260200160002060008282540192505081905550565b60003390506109f2611df0565b6000808373ffffffffffffffffffffffffffffffffffffffff1673ffffffffffffffffffffffffffffffffffffffff16815260200190815260200160002060008481526020019081526020016000206040518060e0016040529081600082015481526020016001820160009054906101000a900473ffffffffffffffffffffffffffffffffffffffff1673ffffffffffffffffffffffffffffffffffffffff1673ffffffffffffffffffffffffffffffffffffffff1681526020016002820160009054906101000a900473ffffffffffffffffffffffffffffffffffffffff1673ffffffffffffffffffffffffffffffffffffffff1673ffffffffffffffffffffffffffffffffffffffff16815260200160038201548152602001600482015481526020016005820160009054906101000a900460ff161515151581526020016005820160019054906101000a900460ff1615151515815250509050828160000151148015610b695750600115158160a001511515145b15610e2d576000610b7a8385610e73565b905080610e27578160800151600460008573ffffffffffffffffffffffffffffffffffffffff1673ffffffffffffffffffffffffffffffffffffffff1681526020019081526020016000206000828254039250508190555060018060008573ffffffffffffffffffffffffffffffffffffffff1673ffffffffffffffffffffffffffffffffffffffff16815260200190815260200160002060008282540392505081905550600160066000846040015173ffffffffffffffffffffffffffffffffffffffff1673ffffffffffffffffffffffffffffffffffffffff168152602001908152602001600020600082825403925050819055506000610c7d8486611964565b905060056000846040015173ffffffffffffffffffffffffffffffffffffffff1673ffffffffffffffffffffffffffffffffffffffff16815260200190815260200160002060008281526020019081526020016000206000808201600090556001820160006101000a81549073ffffffffffffffffffffffffffffffffffffffff0219169055600282016000905550506000808573ffffffffffffffffffffffffffffffffffffffff1673ffffffffffffffffffffffffffffffffffffffff16815260200190815260200160002060008681526020019081526020016000206000808201600090556001820160006101000a81549073ffffffffffffffffffffffffffffffffffffffff02191690556002820160006101000a81549073ffffffffffffffffffffffffffffffffffffffff0219169055600382016000905560048201600090556005820160006101000a81549060ff02191690556005820160016101000a81549060ff021916905550507fffbcba49e4731938e8d761a104e6bbb04ecb95f7cc2bc31c27690ccf9120675d6001604051610e1d91906120e3565b60405180910390a1505b50610e66565b7fffbcba49e4731938e8d761a104e6bbb04ecb95f7cc2bc31c27690ccf9120675d6000604051610e5d91906120e3565b60405180910390a15b505050565b600047905090565b6000610e7d611df0565b6000808573ffffffffffffffffffffffffffffffffffffffff1673ffffffffffffffffffffffffffffffffffffffff16815260200190815260200160002060008481526020019081526020016000206040518060e0016040529081600082015481526020016001820160009054906101000a900473ffffffffffffffffffffffffffffffffffffffff1673ffffffffffffffffffffffffffffffffffffffff1673ffffffffffffffffffffffffffffffffffffffff1681526020016002820160009054906101000a900473ffffffffffffffffffffffffffffffffffffffff1673ffffffffffffffffffffffffffffffffffffffff1673ffffffffffffffffffffffffffffffffffffffff16815260200160038201548152602001600482015481526020016005820160009054906101000a900460ff161515151581526020016005820160019054906101000a900460ff16151515158152505090506000816060015114158015610ff2575080606001514210155b15611001576001915050611007565b60009150505b92915050565b6005602052816000526040600020602052806000526040600020600091509150508060000154908060010160009054906101000a900473ffffffffffffffffffffffffffffffffffffffff16908060020154905083565b6000600160003373ffffffffffffffffffffffffffffffffffffffff1673ffffffffffffffffffffffffffffffffffffffff16815260200190815260200160002054905090565b6110b3611df0565b6000808473ffffffffffffffffffffffffffffffffffffffff1673ffffffffffffffffffffffffffffffffffffffff16815260200190815260200160002060008381526020019081526020016000206040518060e0016040529081600082015481526020016001820160009054906101000a900473ffffffffffffffffffffffffffffffffffffffff1673ffffffffffffffffffffffffffffffffffffffff1673ffffffffffffffffffffffffffffffffffffffff1681526020016002820160009054906101000a900473ffffffffffffffffffffffffffffffffffffffff1673ffffffffffffffffffffffffffffffffffffffff1673ffffffffffffffffffffffffffffffffffffffff16815260200160038201548152602001600482015481526020016005820160009054906101000a900460ff161515151581526020016005820160019054906101000a900460ff1615151515815250509050600061121b8484610e73565b90507fe69558f5a4daf1e96f1d8768166d1b7942396e2b159afcede77b6058b4278e0c8483604001518460800151604051611258939291906120ac565b60405180910390a17fecdc0c677b0b651d584f78016ab338645d78932efd26d3cf016a521036bb66098260c0015160405161129391906120e3565b60405180910390a17f6f2d9afa3c19b06834ae40509756c490fdd2d03459d9b51b563fa388d087bb5e816040516112ca91906120e3565b60405180910390a1600015158260c0015115151480156112e75750805b156114f8576000826040015190506000836080015190508060036000866020015173ffffffffffffffffffffffffffffffffffffffff1673ffffffffffffffffffffffffffffffffffffffff168152602001908152602001600020600082825403925050819055508060046000866020015173ffffffffffffffffffffffffffffffffffffffff1673ffffffffffffffffffffffffffffffffffffffff1681526020019081526020016000206000828254039250508190555060018060008873ffffffffffffffffffffffffffffffffffffffff1673ffffffffffffffffffffffffffffffffffffffff16815260200190815260200160002060008282540392505081905550600160066000866040015173ffffffffffffffffffffffffffffffffffffffff1673ffffffffffffffffffffffffffffffffffffffff168152602001908152602001600020600082825403925050819055506001600080866020015173ffffffffffffffffffffffffffffffffffffffff1673ffffffffffffffffffffffffffffffffffffffff168152602001908152602001600020600087815260200190815260200160002060050160016101000a81548160ff0219169083151502179055508173ffffffffffffffffffffffffffffffffffffffff166108fc829081150290604051600060405180830381858888f193505050501580156114f4573d6000803e3d6000fd5b5050505b50505050565b6000600260003373ffffffffffffffffffffffffffffffffffffffff1673ffffffffffffffffffffffffffffffffffffffff16815260200190815260200160002054905090565b6000600360003373ffffffffffffffffffffffffffffffffffffffff1673ffffffffffffffffffffffffffffffffffffffff168152602001908152602001600020819055503373ffffffffffffffffffffffffffffffffffffffff166108fc479081150290604051600060405180830381858888f193505050501580156115d0573d6000803e3d6000fd5b50565b6115df84848484611632565b50505050565b60076020528060005260406000206000915090505481565b6000620151808402905061161385828585611632565b5050505050565b60066020528060005260406000206000915090505481565b600033905060006116428261094d565b90506000811161165157600080fd5b600061165c836104e3565b905081858201111561166d57600080fd5b84600460008573ffffffffffffffffffffffffffffffffffffffff1673ffffffffffffffffffffffffffffffffffffffff16815260200190815260200160002060008282540192505081905550600086420190506001600260008673ffffffffffffffffffffffffffffffffffffffff1673ffffffffffffffffffffffffffffffffffffffff168152602001908152602001600020600082825401925050819055506000600260008673ffffffffffffffffffffffffffffffffffffffff1673ffffffffffffffffffffffffffffffffffffffff16815260200190815260200160002054905061175b611df0565b6040518060e001604052808381526020018773ffffffffffffffffffffffffffffffffffffffff1681526020018b73ffffffffffffffffffffffffffffffffffffffff1681526020018481526020018981526020018815158152602001600015158152509050806000808873ffffffffffffffffffffffffffffffffffffffff1673ffffffffffffffffffffffffffffffffffffffff16815260200190815260200160002060008481526020019081526020016000206000820151816000015560208201518160010160006101000a81548173ffffffffffffffffffffffffffffffffffffffff021916908373ffffffffffffffffffffffffffffffffffffffff16021790555060408201518160020160006101000a81548173ffffffffffffffffffffffffffffffffffffffff021916908373ffffffffffffffffffffffffffffffffffffffff160217905550606082015181600301556080820151816004015560a08201518160050160006101000a81548160ff02191690831515021790555060c08201518160050160016101000a81548160ff02191690831515021790555090505060018060008873ffffffffffffffffffffffffffffffffffffffff1673ffffffffffffffffffffffffffffffffffffffff1681526020019081526020016000206000828254019250508190555061195886838c611c1f565b50505050505050505050565b600061196e611df0565b6000808573ffffffffffffffffffffffffffffffffffffffff1673ffffffffffffffffffffffffffffffffffffffff16815260200190815260200160002060008481526020019081526020016000206040518060e0016040529081600082015481526020016001820160009054906101000a900473ffffffffffffffffffffffffffffffffffffffff1673ffffffffffffffffffffffffffffffffffffffff1673ffffffffffffffffffffffffffffffffffffffff1681526020016002820160009054906101000a900473ffffffffffffffffffffffffffffffffffffffff1673ffffffffffffffffffffffffffffffffffffffff1673ffffffffffffffffffffffffffffffffffffffff16815260200160038201548152602001600482015481526020016005820160009054906101000a900460ff161515151581526020016005820160019054906101000a900460ff1615151515815250509050600060076000836040015173ffffffffffffffffffffffffffffffffffffffff1673ffffffffffffffffffffffffffffffffffffffff16815260200190815260200160002054905060005b818111611c1657611b24611e5d565b60056000856040015173ffffffffffffffffffffffffffffffffffffffff1673ffffffffffffffffffffffffffffffffffffffff1681526020019081526020016000206000838152602001908152602001600020604051806060016040529081600082015481526020016001820160009054906101000a900473ffffffffffffffffffffffffffffffffffffffff1673ffffffffffffffffffffffffffffffffffffffff1673ffffffffffffffffffffffffffffffffffffffff16815260200160028201548152505090508581604001511415611c08578060000151945050611c16565b508080600101915050611b15565b50505092915050565b6001600760008373ffffffffffffffffffffffffffffffffffffffff1673ffffffffffffffffffffffffffffffffffffffff168152602001908152602001600020600082825401925050819055506000600760008373ffffffffffffffffffffffffffffffffffffffff1673ffffffffffffffffffffffffffffffffffffffff168152602001908152602001600020549050611cb9611e5d565b60405180606001604052808381526020018673ffffffffffffffffffffffffffffffffffffffff16815260200185815250905080600560008573ffffffffffffffffffffffffffffffffffffffff1673ffffffffffffffffffffffffffffffffffffffff16815260200190815260200160002060008481526020019081526020016000206000820151816000015560208201518160010160006101000a81548173ffffffffffffffffffffffffffffffffffffffff021916908373ffffffffffffffffffffffffffffffffffffffff160217905550604082015181600201559050506001600660008573ffffffffffffffffffffffffffffffffffffffff1673ffffffffffffffffffffffffffffffffffffffff168152602001908152602001600020600082825401925050819055505050505050565b6040518060e0016040528060008152602001600073ffffffffffffffffffffffffffffffffffffffff168152602001600073ffffffffffffffffffffffffffffffffffffffff16815260200160008152602001600081526020016000151581526020016000151581525090565b604051806060016040528060008152602001600073ffffffffffffffffffffffffffffffffffffffff168152602001600081525090565b600081359050611ea3816121b3565b92915050565b600081359050611eb8816121ca565b92915050565b600081359050611ecd816121e1565b92915050565b600060208284031215611ee557600080fd5b6000611ef384828501611e94565b91505092915050565b60008060408385031215611f0f57600080fd5b6000611f1d85828601611e94565b9250506020611f2e85828601611ebe565b9150509250929050565b60008060008060808587031215611f4e57600080fd5b6000611f5c87828801611e94565b9450506020611f6d87828801611ebe565b9350506040611f7e87828801611ebe565b9250506060611f8f87828801611ea9565b91505092959194509250565b600060208284031215611fad57600080fd5b6000611fbb84828501611ebe565b91505092915050565b611fcd8161216b565b82525050565b611fdc8161216b565b82525050565b611feb8161217d565b82525050565b611ffa8161217d565b82525050565b60e082016000820151612016600085018261208e565b5060208201516120296020850182611fc4565b50604082015161203c6040850182611fc4565b50606082015161204f606085018261208e565b506080820151612062608085018261208e565b5060a082015161207560a0850182611fe2565b5060c082015161208860c0850182611fe2565b50505050565b612097816121a9565b82525050565b6120a6816121a9565b82525050565b60006060820190506120c16000830186611fd3565b6120ce6020830185611fd3565b6120db604083018461209d565b949350505050565b60006020820190506120f86000830184611ff1565b92915050565b600060e0820190506121136000830184612000565b92915050565b600060208201905061212e600083018461209d565b92915050565b6000606082019050612149600083018661209d565b6121566020830185611fd3565b612163604083018461209d565b949350505050565b600061217682612189565b9050919050565b60008115159050919050565b600073ffffffffffffffffffffffffffffffffffffffff82169050919050565b6000819050919050565b6121bc8161216b565b81146121c757600080fd5b50565b6121d38161217d565b81146121de57600080fd5b50565b6121ea816121a9565b81146121f557600080fd5b5056fea26469706673582212207a2f3df9b4546591d809d053ed174a6e9846fd4ea2145199144941e371cbb40b64736f6c634300060c0033",
  "immutableReferences": {},
  "source": "// SPDX-License-Identifier: GPL-3.0\r\npragma solidity >=0.4.22 <0.8.0;\r\npragma experimental ABIEncoderV2;\r\n\r\ncontract DisburseV1 {\r\n \r\n     struct Beneficiary { \r\n        uint256 id;\r\n        address trustAddress;\r\n        address beneficiaryAddress;\r\n        uint256 disburseDate;\r\n        uint256 amount;\r\n        bool cancelAllowed;\r\n        bool complete;\r\n    }\r\n\r\n    struct Disbursement { \r\n        uint256 id;\r\n        address trustAddress;\r\n        uint256 beneficiaryId;\r\n    }\r\n\r\n    // Events:\r\n    event DisburseFundsEvent(address from, address to, uint256 amount);\r\n    event DisbursementCompleteEvent(bool flag);\r\n    event DisbursementReadyEvent(bool flag);\r\n    event CancelAllowed(bool flag);\r\n    event RemoveBeneficiary(bool flag);\r\n\r\n    // Mapping that outlines how funds should be disbursed to beneficiaries\r\n    mapping(address => mapping(uint256 => Beneficiary)) beneficiaries;\r\n\r\n    // Mapping to record total beneficiaries for each trust\r\n    mapping(address => uint256) beneficiaryCount;\r\n\r\n    // Mapping to record last beneficiary id for each trust\r\n    mapping(address => uint256) topBeneficiaryId;\r\n\r\n    // Mapping that records total trust balance\r\n    mapping(address => uint256) trustBalance;\r\n    \r\n    // Mapping the current beneficiary balance, which may be less than the trust balance\r\n    mapping(address => uint256) beneficiaryBalance;\r\n\r\n    // Mapping that outlines all upcoming disbursements to beneficiaries\r\n    mapping(address => mapping(uint256 => Disbursement)) public disbursements;\r\n\r\n    // Mapping to record total disbursements for each beneficiary\r\n    mapping(address => uint256) public disbursementCount;\r\n\r\n    // Mapping to record last disbursement id for each beneficiary\r\n    mapping(address => uint256) public topDisbursementId;\r\n\r\n    function contributeToTrust() public payable {\r\n        trustBalance[msg.sender] += msg.value;  // Add funds to any previous funds\r\n    }\r\n\r\n    function getTrustBalance(address _trustAddress) public view returns(uint256 _balance) {\r\n        _balance = trustBalance[_trustAddress];\r\n    }\r\n\r\n    function withdrawTrustBalance() public {\r\n        trustBalance[msg.sender] = 0;\r\n        msg.sender.transfer(address(this).balance);\r\n    }\r\n\r\n    function withdrawAmountFromTrustBalance(uint256 _amount) public {\r\n        trustBalance[msg.sender] -= _amount;\r\n        msg.sender.transfer(_amount);\r\n    }\r\n\r\n    function getBeneficiaryBalance(address _trustAddress) public view returns(uint256 _balance) {\r\n        _balance = beneficiaryBalance[_trustAddress];\r\n    }\r\n\r\n    function getContractBalance() public view returns(uint256 _balance) {\r\n        _balance = address(this).balance;\r\n    }\r\n\r\n    function addBeneficiarySeconds(address _beneficiaryAddress, uint256 _seconds, uint256 _amount, bool _cancelAllowed) public {\r\n        addBeneficiary(_beneficiaryAddress, _seconds, _amount, _cancelAllowed);\r\n    }\r\n\r\n    function addBeneficiaryDays(address _beneficiaryAddress, uint256 _days, uint256 _amount, bool _cancelAllowed) public {\r\n        uint256 sec =  _days * 86400;               // Determine number of seconds\r\n        addBeneficiary(_beneficiaryAddress, sec, _amount, _cancelAllowed);\r\n    }\r\n\r\n    function addBeneficiary(address _beneficiaryAddress, uint256 _seconds, uint256 _amount, bool _cancelAllowed) public {\r\n        \r\n        // Only trust owner can add beneficiary \r\n        address trustAddress = msg.sender;\r\n        \r\n        // Ensure trust has been previously intiated\r\n        uint256 trustAmount = getTrustBalance(trustAddress);\r\n        require(trustAmount > 0);\r\n        \r\n        // Ensure trust has sufficient funds to disburse to beneficiary\r\n        uint256 beneficiaryAmount = getBeneficiaryBalance(trustAddress);\r\n        require (beneficiaryAmount + _amount <= trustAmount);\r\n        \r\n        // Update total beneficiary amount\r\n        beneficiaryBalance[trustAddress] += _amount;\r\n\r\n        // Determine beneficiary disbursement date\r\n        uint256 delayInSeconds = block.timestamp + _seconds;\r\n\r\n        // Update to next available beneficiary id\r\n        // NOTE: Id's cannot start at 0, otherwise the return id of an existing\r\n        // address and non-existing address will look the same\r\n        topBeneficiaryId[trustAddress] += 1;\r\n\r\n        // Get beneficiary id\r\n        uint256 beneficiaryId = topBeneficiaryId[trustAddress];\r\n\r\n        // Create new beneficiary\r\n        Beneficiary memory beneficiary = Beneficiary(\r\n                                            beneficiaryId,\r\n                                            trustAddress, \r\n                                            _beneficiaryAddress, \r\n                                            delayInSeconds, \r\n                                            _amount, \r\n                                            _cancelAllowed,\r\n                                            false);\r\n                                            \r\n\r\n        // Every key maps to something. If no value has been set yet, then the value is 0. \r\n        beneficiaries[trustAddress][beneficiaryId] = beneficiary;\r\n\r\n        // Update total number of beneficiaries this trust is managing\r\n        beneficiaryCount[trustAddress] += 1;\r\n\r\n        // Add disbursement\r\n        addDisbursement(trustAddress, beneficiaryId, _beneficiaryAddress);\r\n    }\r\n    \r\n    // Add a disbursement once a new beneficiary has been added \r\n    function addDisbursement(address _trustAddress, uint256 _beneficiaryId, address _beneficiaryAddress) internal {\r\n\r\n        // Update to next available disbursement id\r\n        topDisbursementId[_beneficiaryAddress] += 1;        \r\n        \r\n        // Get disbursement id that was just incremented\r\n        uint256 disbursementId = topDisbursementId[_beneficiaryAddress];\r\n\r\n        // Create new disbursement\r\n        Disbursement memory disbursement = Disbursement(\r\n                                            disbursementId,\r\n                                            _trustAddress, \r\n                                            _beneficiaryId);\r\n\r\n         // Every key maps to something. If no value has been set yet, then the value is 0. \r\n        disbursements[_beneficiaryAddress][disbursementId] = disbursement;\r\n        \r\n        // Update total number of disbursements this beneficiary is managing\r\n        disbursementCount[_beneficiaryAddress] += 1;    \r\n        \r\n    }\r\n    \r\n    // Retrieve total number of beneficiaries of a partricular trust account\r\n    function getBeneficiaryCount() public view returns(uint256 _count) {\r\n        _count = beneficiaryCount[msg.sender];\r\n    }\r\n\r\n    // Counter that increments the id's of beneficiaries\r\n    function getTopBeneficiaryId() public view returns(uint256 _count) {\r\n        _count = topBeneficiaryId[msg.sender];\r\n    }\r\n\r\n    // Retrieve beneficiary based on it's unique id\r\n    function getBeneficiary(uint256 _id) public view returns(Beneficiary memory _beneficiary) {\r\n        // Only trust owner can get details of beneficiary\r\n        _beneficiary = beneficiaries[msg.sender][_id];\r\n    }\r\n    \r\n    // TODO FIX: What happens if we have the same beneficiary Address on two different disbursement dates?\r\n    // This implies there is more than one ID associated with an address.\r\n\r\n    function getBeneficiaryId(address _beneficiaryAddress) public view returns(uint256 _id) {\r\n        \r\n        // NOTE: Id's cannot be zero indexed, otherwise the return id of an existing\r\n        // address and non-existing address will look the same\r\n        \r\n        // Retrieve the Id of the last most beneficiary\r\n        uint256 topId = topBeneficiaryId[msg.sender];\r\n        \r\n        for (uint256 id = 0; id <= topId; id++){\r\n            Beneficiary memory beneficiary = beneficiaries[msg.sender][id];\r\n            \r\n            if ((beneficiary.beneficiaryAddress == _beneficiaryAddress) &&\r\n                (beneficiary.complete == false)){\r\n                _id = beneficiary.id;\r\n                break;\r\n            }\r\n        }\r\n    }\r\n\r\n    // Retrieve the disbursement ID associated with a given beneficiary ID\r\n    function getDisbursementId(address _trustAddress, uint256 _beneficiaryId) public view returns(uint256 _id) {\r\n        \r\n        // Retrieve Beneficiary\r\n        Beneficiary memory beneficiary = beneficiaries[_trustAddress][_beneficiaryId];\r\n        \r\n        // Retrieve the Id of the last disbursement\r\n        uint256 topId = topDisbursementId[beneficiary.beneficiaryAddress];\r\n        \r\n        for (uint256 id = 0; id <= topId; id++){\r\n            \r\n            Disbursement memory disbursement = disbursements[beneficiary.beneficiaryAddress][id];\r\n            \r\n            if (disbursement.beneficiaryId == _beneficiaryId) {\r\n                _id = disbursement.id;\r\n                break;\r\n            }\r\n        }\r\n    }\r\n\r\n    // Determine if the disbursement date has passed\r\n    function readyToDisburse(address _trustAddress, uint256 _id) public view returns (bool) {\r\n        \r\n        Beneficiary memory beneficiary = beneficiaries[_trustAddress][_id];\r\n        \r\n        // Ensure deadline has been set && has passed\r\n        if (beneficiary.disburseDate != 0 && block.timestamp >= beneficiary.disburseDate) return true; \r\n\r\n        return false; \r\n    }  \r\n\r\n    // This function should be callable anyone, including the beneficiary\r\n    // This function will only execute AFTER the disbursement date, unlike removeBeneficiary which\r\n    // executes BEFORE the disbursement date. \r\n    function disburseFunds(address _trustAddress, uint256 _beneficiaryId) public {\r\n        \r\n        Beneficiary memory beneficiary = beneficiaries[_trustAddress][_beneficiaryId];\r\n        bool passedDisbursementDate = readyToDisburse(_trustAddress, _beneficiaryId);\r\n\r\n        emit DisburseFundsEvent(_trustAddress, beneficiary.beneficiaryAddress, beneficiary.amount);\r\n        emit DisbursementCompleteEvent(beneficiary.complete);\r\n        emit DisbursementReadyEvent(passedDisbursementDate);\r\n\r\n        // Will only execute AFTER disbursement date\r\n        if (beneficiary.complete == false && passedDisbursementDate) {\r\n\r\n            address payable beneficiaryAddress = payable(beneficiary.beneficiaryAddress);\r\n            uint256 amount = beneficiary.amount;\r\n            \r\n            // Reduce trust balance\r\n            trustBalance[beneficiary.trustAddress] -= amount;\r\n            \r\n            // Reduce total beneficiary claims\r\n            beneficiaryBalance[beneficiary.trustAddress] -= amount;\r\n            \r\n            // Update total number of ACTIVE beneficiaries this trust is managing\r\n            // This does not delete the history in the mapping\r\n            beneficiaryCount[_trustAddress] -= 1;\r\n\r\n            // Update total number of ACTIVE disbursements tied to this beneficiary\r\n            // This does not delete the history in the mapping\r\n            disbursementCount[beneficiary.beneficiaryAddress] -= 1;\r\n\r\n            // Set the complete flag to true\r\n            beneficiaries[beneficiary.trustAddress][_beneficiaryId].complete = true;\r\n\r\n            // Finally, disburse funds to beneficiary\r\n            beneficiaryAddress.transfer(amount);\r\n        }\r\n    }\r\n\r\n    // Remove beneficiary at a unique id\r\n    // This function will only execute BEFORE the disbursement date, unlike disburseFunds which\r\n    // executes AFTER the disbursement date.\r\n    function removeBeneficiary(uint256 _beneficiaryId) public {\r\n\r\n        address _trustAddress = msg.sender;\r\n        // Retrieve beneficiary address\r\n        Beneficiary memory beneficiary = beneficiaries[_trustAddress][_beneficiaryId];\r\n    \r\n        if ((beneficiary.id == _beneficiaryId)  && (beneficiary.cancelAllowed == true)) {\r\n\r\n            bool passedDisbursementDate = readyToDisburse(_trustAddress, _beneficiaryId);\r\n\r\n            // Will only execute BEFORE disbursement date\r\n            if (!passedDisbursementDate) {\r\n                \r\n                // Reduce total beneficiary claims\r\n                beneficiaryBalance[_trustAddress] -= beneficiary.amount;\r\n                \r\n                // Update total number of beneficiaries this trust is managing\r\n                beneficiaryCount[_trustAddress] -= 1;\r\n\r\n                // Update total number of disbursements tied to this beneficiary\r\n                disbursementCount[beneficiary.beneficiaryAddress] -= 1;\r\n\r\n                uint256 disbursementId = getDisbursementId(_trustAddress, _beneficiaryId);\r\n\r\n                // will delete the struct.  \r\n                // This deletion must occur BEFORE the beneficiary deletion, otherwise address will not existing\r\n                delete disbursements[beneficiary.beneficiaryAddress][disbursementId];\r\n                \r\n                 // will delete the struct\r\n                delete beneficiaries[_trustAddress][_beneficiaryId];\r\n\r\n                emit RemoveBeneficiary(true);\r\n            }\r\n        }\r\n        else{\r\n            emit RemoveBeneficiary(false);\r\n        }\r\n    }\r\n\r\n}",
  "sourcePath": "D:/Code/app/contracts/DisburseV1.sol",
  "compiler": {
    "name": "solc",
    "version": "0.6.12+commit.27d51765.Emscripten.clang"
  },
  "schemaVersion": "3.3.2",
  "updatedAt": "2020-12-30T20:21:54.541Z",
  "networkType": "ethereum",
  "devdoc": {
    "kind": "dev",
    "methods": {},
    "version": 1
  },
  "userdoc": {
    "kind": "user",
    "methods": {},
    "version": 1
  }
}