{
  "contractName": "DisburseV1",
  "abi": [
    {
      "inputs": [],
      "stateMutability": "nonpayable",
      "type": "constructor"
    },
    {
      "anonymous": false,
      "inputs": [
        {
          "indexed": false,
          "internalType": "bool",
          "name": "flag",
          "type": "bool"
        }
      ],
      "name": "CancelAllowed",
      "type": "event"
    },
    {
      "anonymous": false,
      "inputs": [
        {
          "indexed": false,
          "internalType": "address",
          "name": "from",
          "type": "address"
        },
        {
          "indexed": false,
          "internalType": "address",
          "name": "to",
          "type": "address"
        },
        {
          "indexed": false,
          "internalType": "uint256",
          "name": "amount",
          "type": "uint256"
        }
      ],
      "name": "DisburseFundsEvent",
      "type": "event"
    },
    {
      "anonymous": false,
      "inputs": [
        {
          "indexed": false,
          "internalType": "bool",
          "name": "flag",
          "type": "bool"
        }
      ],
      "name": "DisbursementCompleteEvent",
      "type": "event"
    },
    {
      "anonymous": false,
      "inputs": [
        {
          "indexed": false,
          "internalType": "bool",
          "name": "flag",
          "type": "bool"
        }
      ],
      "name": "DisbursementReadyEvent",
      "type": "event"
    },
    {
      "anonymous": false,
      "inputs": [
        {
          "indexed": false,
          "internalType": "address",
          "name": "account",
          "type": "address"
        }
      ],
      "name": "Paused",
      "type": "event"
    },
    {
      "anonymous": false,
      "inputs": [
        {
          "indexed": false,
          "internalType": "bool",
          "name": "flag",
          "type": "bool"
        }
      ],
      "name": "RefundTrust",
      "type": "event"
    },
    {
      "anonymous": false,
      "inputs": [
        {
          "indexed": false,
          "internalType": "bool",
          "name": "flag",
          "type": "bool"
        }
      ],
      "name": "RemoveBeneficiary",
      "type": "event"
    },
    {
      "anonymous": false,
      "inputs": [
        {
          "indexed": false,
          "internalType": "address",
          "name": "account",
          "type": "address"
        }
      ],
      "name": "Unpaused",
      "type": "event"
    },
    {
      "inputs": [],
      "name": "admin",
      "outputs": [
        {
          "internalType": "address",
          "name": "",
          "type": "address"
        }
      ],
      "stateMutability": "view",
      "type": "function",
      "constant": true
    },
    {
      "inputs": [
        {
          "internalType": "address",
          "name": "newAdmin",
          "type": "address"
        }
      ],
      "name": "changeOwner",
      "outputs": [],
      "stateMutability": "nonpayable",
      "type": "function"
    },
    {
      "inputs": [],
      "name": "isActive",
      "outputs": [
        {
          "internalType": "bool",
          "name": "",
          "type": "bool"
        }
      ],
      "stateMutability": "view",
      "type": "function",
      "constant": true
    },
    {
      "inputs": [],
      "name": "paused",
      "outputs": [
        {
          "internalType": "bool",
          "name": "",
          "type": "bool"
        }
      ],
      "stateMutability": "view",
      "type": "function",
      "constant": true
    },
    {
      "inputs": [],
      "name": "toggleCircuitBreaker",
      "outputs": [],
      "stateMutability": "nonpayable",
      "type": "function"
    },
    {
      "inputs": [],
      "name": "contributeToTrust",
      "outputs": [],
      "stateMutability": "payable",
      "type": "function",
      "payable": true
    },
    {
      "inputs": [
        {
          "internalType": "address",
          "name": "_trustAddress",
          "type": "address"
        }
      ],
      "name": "getTrustBalance",
      "outputs": [
        {
          "internalType": "uint256",
          "name": "",
          "type": "uint256"
        }
      ],
      "stateMutability": "view",
      "type": "function",
      "constant": true
    },
    {
      "inputs": [],
      "name": "withdrawTrustBalance",
      "outputs": [],
      "stateMutability": "nonpayable",
      "type": "function"
    },
    {
      "inputs": [
        {
          "internalType": "uint256",
          "name": "_amount",
          "type": "uint256"
        }
      ],
      "name": "withdrawAmountFromTrustBalance",
      "outputs": [],
      "stateMutability": "nonpayable",
      "type": "function"
    },
    {
      "inputs": [
        {
          "internalType": "address",
          "name": "_trustAddress",
          "type": "address"
        }
      ],
      "name": "getBeneficiaryBalance",
      "outputs": [
        {
          "internalType": "uint256",
          "name": "",
          "type": "uint256"
        }
      ],
      "stateMutability": "view",
      "type": "function",
      "constant": true
    },
    {
      "inputs": [],
      "name": "getContractBalance",
      "outputs": [
        {
          "internalType": "uint256",
          "name": "",
          "type": "uint256"
        }
      ],
      "stateMutability": "view",
      "type": "function",
      "constant": true
    },
    {
      "inputs": [
        {
          "internalType": "address",
          "name": "_beneficiaryAddress",
          "type": "address"
        },
        {
          "internalType": "uint256",
          "name": "_seconds",
          "type": "uint256"
        },
        {
          "internalType": "uint256",
          "name": "_amount",
          "type": "uint256"
        },
        {
          "internalType": "bool",
          "name": "_cancelAllowed",
          "type": "bool"
        }
      ],
      "name": "addBeneficiarySeconds",
      "outputs": [],
      "stateMutability": "nonpayable",
      "type": "function"
    },
    {
      "inputs": [
        {
          "internalType": "address",
          "name": "_beneficiaryAddress",
          "type": "address"
        },
        {
          "internalType": "uint256",
          "name": "_days",
          "type": "uint256"
        },
        {
          "internalType": "uint256",
          "name": "_amount",
          "type": "uint256"
        },
        {
          "internalType": "bool",
          "name": "_cancelAllowed",
          "type": "bool"
        }
      ],
      "name": "addBeneficiaryDays",
      "outputs": [],
      "stateMutability": "nonpayable",
      "type": "function"
    },
    {
      "inputs": [
        {
          "internalType": "address",
          "name": "_beneficiaryAddress",
          "type": "address"
        },
        {
          "internalType": "uint256",
          "name": "_seconds",
          "type": "uint256"
        },
        {
          "internalType": "uint256",
          "name": "_amount",
          "type": "uint256"
        },
        {
          "internalType": "bool",
          "name": "_cancelAllowed",
          "type": "bool"
        }
      ],
      "name": "addBeneficiary",
      "outputs": [],
      "stateMutability": "nonpayable",
      "type": "function"
    },
    {
      "inputs": [],
      "name": "getBeneficiaryCount",
      "outputs": [
        {
          "internalType": "uint256",
          "name": "_count",
          "type": "uint256"
        }
      ],
      "stateMutability": "view",
      "type": "function",
      "constant": true
    },
    {
      "inputs": [],
      "name": "getTopBeneficiaryId",
      "outputs": [
        {
          "internalType": "uint256",
          "name": "_count",
          "type": "uint256"
        }
      ],
      "stateMutability": "view",
      "type": "function",
      "constant": true
    },
    {
      "inputs": [
        {
          "internalType": "uint256",
          "name": "_beneficiaryId",
          "type": "uint256"
        }
      ],
      "name": "getBeneficiary",
      "outputs": [
        {
          "components": [
            {
              "internalType": "uint256",
              "name": "id",
              "type": "uint256"
            },
            {
              "internalType": "address",
              "name": "trustAddress",
              "type": "address"
            },
            {
              "internalType": "address",
              "name": "beneficiaryAddress",
              "type": "address"
            },
            {
              "internalType": "uint256",
              "name": "disburseDate",
              "type": "uint256"
            },
            {
              "internalType": "uint256",
              "name": "amount",
              "type": "uint256"
            },
            {
              "internalType": "bool",
              "name": "cancelAllowed",
              "type": "bool"
            },
            {
              "internalType": "bool",
              "name": "complete",
              "type": "bool"
            }
          ],
          "internalType": "struct DisburseV1.Beneficiary",
          "name": "_beneficiary",
          "type": "tuple"
        }
      ],
      "stateMutability": "view",
      "type": "function",
      "constant": true
    },
    {
      "inputs": [
        {
          "internalType": "address",
          "name": "_beneficiaryAddress",
          "type": "address"
        }
      ],
      "name": "getBeneficiaryId",
      "outputs": [
        {
          "internalType": "uint256",
          "name": "_id",
          "type": "uint256"
        }
      ],
      "stateMutability": "view",
      "type": "function",
      "constant": true
    },
    {
      "inputs": [
        {
          "internalType": "address",
          "name": "_beneficiary",
          "type": "address"
        }
      ],
      "name": "getDisbursementCount",
      "outputs": [
        {
          "internalType": "uint256",
          "name": "",
          "type": "uint256"
        }
      ],
      "stateMutability": "view",
      "type": "function",
      "constant": true
    },
    {
      "inputs": [],
      "name": "getTopDisbursementId",
      "outputs": [
        {
          "internalType": "uint256",
          "name": "",
          "type": "uint256"
        }
      ],
      "stateMutability": "view",
      "type": "function",
      "constant": true
    },
    {
      "inputs": [
        {
          "internalType": "address",
          "name": "_trustAddress",
          "type": "address"
        },
        {
          "internalType": "uint256",
          "name": "_beneficiaryId",
          "type": "uint256"
        }
      ],
      "name": "getDisbursementId",
      "outputs": [
        {
          "internalType": "uint256",
          "name": "_id",
          "type": "uint256"
        }
      ],
      "stateMutability": "view",
      "type": "function",
      "constant": true
    },
    {
      "inputs": [
        {
          "internalType": "address",
          "name": "_beneficiaryAddress",
          "type": "address"
        },
        {
          "internalType": "uint256",
          "name": "_disbursementId",
          "type": "uint256"
        }
      ],
      "name": "getDisbursement",
      "outputs": [
        {
          "components": [
            {
              "internalType": "uint256",
              "name": "id",
              "type": "uint256"
            },
            {
              "internalType": "address",
              "name": "trustAddress",
              "type": "address"
            },
            {
              "internalType": "uint256",
              "name": "beneficiaryId",
              "type": "uint256"
            }
          ],
          "internalType": "struct DisburseV1.Disbursement",
          "name": "_disbursement",
          "type": "tuple"
        }
      ],
      "stateMutability": "view",
      "type": "function",
      "constant": true
    },
    {
      "inputs": [
        {
          "internalType": "address",
          "name": "_trustAddress",
          "type": "address"
        },
        {
          "internalType": "uint256",
          "name": "_id",
          "type": "uint256"
        }
      ],
      "name": "readyToDisburse",
      "outputs": [
        {
          "internalType": "bool",
          "name": "",
          "type": "bool"
        }
      ],
      "stateMutability": "view",
      "type": "function",
      "constant": true
    },
    {
      "inputs": [
        {
          "internalType": "address",
          "name": "_trustAddress",
          "type": "address"
        },
        {
          "internalType": "uint256",
          "name": "_beneficiaryId",
          "type": "uint256"
        }
      ],
      "name": "disburseFunds",
      "outputs": [],
      "stateMutability": "nonpayable",
      "type": "function"
    },
    {
      "inputs": [
        {
          "internalType": "uint256",
          "name": "_beneficiaryId",
          "type": "uint256"
        }
      ],
      "name": "removeBeneficiary",
      "outputs": [],
      "stateMutability": "nonpayable",
      "type": "function"
    },
    {
      "inputs": [
        {
          "internalType": "uint256",
          "name": "_disbursementId",
          "type": "uint256"
        }
      ],
      "name": "refundTrust",
      "outputs": [],
      "stateMutability": "nonpayable",
      "type": "function"
    },
    {
      "inputs": [],
      "name": "emergency",
      "outputs": [],
      "stateMutability": "nonpayable",
      "type": "function"
    },
    {
      "inputs": [
        {
          "internalType": "uint256",
          "name": "_amount",
          "type": "uint256"
        },
        {
          "internalType": "uint256",
          "name": "_bps",
          "type": "uint256"
        }
      ],
      "name": "calculatePercentage",
      "outputs": [
        {
          "internalType": "uint256",
          "name": "",
          "type": "uint256"
        }
      ],
      "stateMutability": "pure",
      "type": "function",
      "constant": true
    }
  ],
  "bytecode": "0x60806040526001600260006101000a81548160ff02191690831515021790555033600260016101000a81548173ffffffffffffffffffffffffffffffffffffffff021916908373ffffffffffffffffffffffffffffffffffffffff16021790555034801561006c57600080fd5b503360008060006101000a81548160ff0219169083151502179055506001808190555080600260016101000a81548173ffffffffffffffffffffffffffffffffffffffff021916908373ffffffffffffffffffffffffffffffffffffffff16021790555050612df0806100e06000396000f3fe6080604052600436106101b75760003560e01c80639a6e7fd1116100ec578063d5eb63cc1161008a578063de9723ed11610064578063de9723ed146105eb578063f851a44014610614578063fae568091461063f578063fd1c02c514610668576101b7565b8063d5eb63cc1461056e578063d88ab49314610585578063daf33fc8146105c2576101b7565b8063b0ac9102116100c6578063b0ac9102146104ec578063b8d88ac614610517578063caa6fea41461052e578063cfd0344d14610545576101b7565b80639a6e7fd11461046f578063a6f9dae11461049a578063ad48e2a2146104c3576101b7565b8063539d83c61161015957806363871d251161013357806363871d25146103b35780636f9fb98a146103dc578063799575c2146104075780638f29b0a214610444576101b7565b8063539d83c6146103415780635b8d96581461037e5780635c975abb14610388576101b7565b806322f3e2d41161019557806322f3e2d414610273578063269235101461029e5780632d772992146102db578063302df08314610304576101b7565b806307bcb6ef146101bc5780630a455f6a146101f95780632133e3b914610236575b600080fd5b3480156101c857600080fd5b506101e360048036038101906101de9190612921565b6106a5565b6040516101f09190612d01565b60405180910390f35b34801561020557600080fd5b50610220600480360381019061021b9190612921565b6106ee565b60405161022d9190612d01565b60405180910390f35b34801561024257600080fd5b5061025d60048036038101906102589190612a12565b610910565b60405161026a9190612d01565b60405180910390f35b34801561027f57600080fd5b50610288610977565b6040516102959190612c70565b60405180910390f35b3480156102aa57600080fd5b506102c560048036038101906102c0919061294a565b61098a565b6040516102d29190612ce6565b60405180910390f35b3480156102e757600080fd5b5061030260048036038101906102fd91906129e9565b610a5f565b005b34801561031057600080fd5b5061032b600480360381019061032691906129e9565b610af6565b6040516103389190612ccb565b60405180910390f35b34801561034d57600080fd5b5061036860048036038101906103639190612921565b610c60565b6040516103759190612d01565b60405180910390f35b610386610ca9565b005b34801561039457600080fd5b5061039d610cf8565b6040516103aa9190612c70565b60405180910390f35b3480156103bf57600080fd5b506103da60048036038101906103d591906129e9565b610d0e565b005b3480156103e857600080fd5b506103f1611197565b6040516103fe9190612d01565b60405180910390f35b34801561041357600080fd5b5061042e6004803603810190610429919061294a565b61119f565b60405161043b9190612c70565b60405180910390f35b34801561045057600080fd5b5061045961133a565b6040516104669190612d01565b60405180910390f35b34801561047b57600080fd5b50610484611381565b6040516104919190612d01565b60405180910390f35b3480156104a657600080fd5b506104c160048036038101906104bc9190612921565b6113c8565b005b3480156104cf57600080fd5b506104ea60048036038101906104e5919061294a565b61149c565b005b3480156104f857600080fd5b506105016118f2565b60405161050e9190612d01565b60405180910390f35b34801561052357600080fd5b5061052c611939565b005b34801561053a57600080fd5b506105436119c7565b005b34801561055157600080fd5b5061056c60048036038101906105679190612986565b611a70565b005b34801561057a57600080fd5b50610583611a82565b005b34801561059157600080fd5b506105ac60048036038101906105a79190612921565b611b08565b6040516105b99190612d01565b60405180910390f35b3480156105ce57600080fd5b506105e960048036038101906105e491906129e9565b611b51565b005b3480156105f757600080fd5b50610612600480360381019061060d9190612986565b61203a565b005b34801561062057600080fd5b50610629612057565b6040516106369190612c1e565b60405180910390f35b34801561064b57600080fd5b5061066660048036038101906106619190612986565b61207d565b005b34801561067457600080fd5b5061068f600480360381019061068a919061294a565b6123b1565b60405161069c9190612d01565b60405180910390f35b6000600760008373ffffffffffffffffffffffffffffffffffffffff1673ffffffffffffffffffffffffffffffffffffffff168152602001908152602001600020549050919050565b600080600560003373ffffffffffffffffffffffffffffffffffffffff1673ffffffffffffffffffffffffffffffffffffffff16815260200190815260200160002054905060005b8181116109095761074561283e565b600360003373ffffffffffffffffffffffffffffffffffffffff1673ffffffffffffffffffffffffffffffffffffffff16815260200190815260200160002060008381526020019081526020016000206040518060e0016040529081600082015481526020016001820160009054906101000a900473ffffffffffffffffffffffffffffffffffffffff1673ffffffffffffffffffffffffffffffffffffffff1673ffffffffffffffffffffffffffffffffffffffff1681526020016002820160009054906101000a900473ffffffffffffffffffffffffffffffffffffffff1673ffffffffffffffffffffffffffffffffffffffff1673ffffffffffffffffffffffffffffffffffffffff16815260200160038201548152602001600482015481526020016005820160009054906101000a900460ff161515151581526020016005820160019054906101000a900460ff16151515158152505090508473ffffffffffffffffffffffffffffffffffffffff16816040015173ffffffffffffffffffffffffffffffffffffffff161480156108e95750600015158160c001511515145b156108fb578060000151935050610909565b508080600101915050610736565b5050919050565b60008261271080858161091f57fe5b040214610961576040517f08c379a000000000000000000000000000000000000000000000000000000000815260040161095890612c8b565b60405180910390fd5b6127108284028161096e57fe5b04905092915050565b600260009054906101000a900460ff1681565b6109926128ab565b600860008473ffffffffffffffffffffffffffffffffffffffff1673ffffffffffffffffffffffffffffffffffffffff1681526020019081526020016000206000838152602001908152602001600020604051806060016040529081600082015481526020016001820160009054906101000a900473ffffffffffffffffffffffffffffffffffffffff1673ffffffffffffffffffffffffffffffffffffffff1673ffffffffffffffffffffffffffffffffffffffff168152602001600282015481525050905092915050565b80600660003373ffffffffffffffffffffffffffffffffffffffff1673ffffffffffffffffffffffffffffffffffffffff168152602001908152602001600020600082825403925050819055503373ffffffffffffffffffffffffffffffffffffffff166108fc829081150290604051600060405180830381858888f19350505050158015610af2573d6000803e3d6000fd5b5050565b610afe61283e565b600360003373ffffffffffffffffffffffffffffffffffffffff1673ffffffffffffffffffffffffffffffffffffffff16815260200190815260200160002060008381526020019081526020016000206040518060e0016040529081600082015481526020016001820160009054906101000a900473ffffffffffffffffffffffffffffffffffffffff1673ffffffffffffffffffffffffffffffffffffffff1673ffffffffffffffffffffffffffffffffffffffff1681526020016002820160009054906101000a900473ffffffffffffffffffffffffffffffffffffffff1673ffffffffffffffffffffffffffffffffffffffff1673ffffffffffffffffffffffffffffffffffffffff16815260200160038201548152602001600482015481526020016005820160009054906101000a900460ff161515151581526020016005820160019054906101000a900460ff1615151515815250509050919050565b6000600660008373ffffffffffffffffffffffffffffffffffffffff1673ffffffffffffffffffffffffffffffffffffffff168152602001908152602001600020549050919050565b34600660003373ffffffffffffffffffffffffffffffffffffffff1673ffffffffffffffffffffffffffffffffffffffff16815260200190815260200160002060008282540192505081905550565b60008060009054906101000a900460ff16905090565b6000339050610d1b61283e565b600360008373ffffffffffffffffffffffffffffffffffffffff1673ffffffffffffffffffffffffffffffffffffffff16815260200190815260200160002060008481526020019081526020016000206040518060e0016040529081600082015481526020016001820160009054906101000a900473ffffffffffffffffffffffffffffffffffffffff1673ffffffffffffffffffffffffffffffffffffffff1673ffffffffffffffffffffffffffffffffffffffff1681526020016002820160009054906101000a900473ffffffffffffffffffffffffffffffffffffffff1673ffffffffffffffffffffffffffffffffffffffff1673ffffffffffffffffffffffffffffffffffffffff16815260200160038201548152602001600482015481526020016005820160009054906101000a900460ff161515151581526020016005820160019054906101000a900460ff1615151515815250509050828160000151148015610e935750600115158160a001511515145b15611159576000610ea4838561119f565b905080611153578160800151600760008573ffffffffffffffffffffffffffffffffffffffff1673ffffffffffffffffffffffffffffffffffffffff168152602001908152602001600020600082825403925050819055506001600460008573ffffffffffffffffffffffffffffffffffffffff1673ffffffffffffffffffffffffffffffffffffffff16815260200190815260200160002060008282540392505081905550600160096000846040015173ffffffffffffffffffffffffffffffffffffffff1673ffffffffffffffffffffffffffffffffffffffff168152602001908152602001600020600082825403925050819055506000610fa884866123b1565b905060086000846040015173ffffffffffffffffffffffffffffffffffffffff1673ffffffffffffffffffffffffffffffffffffffff16815260200190815260200160002060008281526020019081526020016000206000808201600090556001820160006101000a81549073ffffffffffffffffffffffffffffffffffffffff021916905560028201600090555050600360008573ffffffffffffffffffffffffffffffffffffffff1673ffffffffffffffffffffffffffffffffffffffff16815260200190815260200160002060008681526020019081526020016000206000808201600090556001820160006101000a81549073ffffffffffffffffffffffffffffffffffffffff02191690556002820160006101000a81549073ffffffffffffffffffffffffffffffffffffffff0219169055600382016000905560048201600090556005820160006101000a81549060ff02191690556005820160016101000a81549060ff021916905550507fffbcba49e4731938e8d761a104e6bbb04ecb95f7cc2bc31c27690ccf9120675d60016040516111499190612c70565b60405180910390a1505b50611192565b7fffbcba49e4731938e8d761a104e6bbb04ecb95f7cc2bc31c27690ccf9120675d60006040516111899190612c70565b60405180910390a15b505050565b600047905090565b60006111a961283e565b600360008573ffffffffffffffffffffffffffffffffffffffff1673ffffffffffffffffffffffffffffffffffffffff16815260200190815260200160002060008481526020019081526020016000206040518060e0016040529081600082015481526020016001820160009054906101000a900473ffffffffffffffffffffffffffffffffffffffff1673ffffffffffffffffffffffffffffffffffffffff1673ffffffffffffffffffffffffffffffffffffffff1681526020016002820160009054906101000a900473ffffffffffffffffffffffffffffffffffffffff1673ffffffffffffffffffffffffffffffffffffffff1673ffffffffffffffffffffffffffffffffffffffff16815260200160038201548152602001600482015481526020016005820160009054906101000a900460ff161515151581526020016005820160019054906101000a900460ff1615151515815250509050600081606001511415801561131f575080606001514210155b1561132e576001915050611334565b60009150505b92915050565b6000600a60003373ffffffffffffffffffffffffffffffffffffffff1673ffffffffffffffffffffffffffffffffffffffff16815260200190815260200160002054905090565b6000600460003373ffffffffffffffffffffffffffffffffffffffff1673ffffffffffffffffffffffffffffffffffffffff16815260200190815260200160002054905090565b600260019054906101000a900473ffffffffffffffffffffffffffffffffffffffff1673ffffffffffffffffffffffffffffffffffffffff163373ffffffffffffffffffffffffffffffffffffffff1614611458576040517f08c379a000000000000000000000000000000000000000000000000000000000815260040161144f90612cab565b60405180910390fd5b80600260016101000a81548173ffffffffffffffffffffffffffffffffffffffff021916908373ffffffffffffffffffffffffffffffffffffffff16021790555050565b6114a461283e565b600360008473ffffffffffffffffffffffffffffffffffffffff1673ffffffffffffffffffffffffffffffffffffffff16815260200190815260200160002060008381526020019081526020016000206040518060e0016040529081600082015481526020016001820160009054906101000a900473ffffffffffffffffffffffffffffffffffffffff1673ffffffffffffffffffffffffffffffffffffffff1673ffffffffffffffffffffffffffffffffffffffff1681526020016002820160009054906101000a900473ffffffffffffffffffffffffffffffffffffffff1673ffffffffffffffffffffffffffffffffffffffff1673ffffffffffffffffffffffffffffffffffffffff16815260200160038201548152602001600482015481526020016005820160009054906101000a900460ff161515151581526020016005820160019054906101000a900460ff1615151515815250509050600061160d848461119f565b90507fe69558f5a4daf1e96f1d8768166d1b7942396e2b159afcede77b6058b4278e0c848360400151846080015160405161164a93929190612c39565b60405180910390a17fecdc0c677b0b651d584f78016ab338645d78932efd26d3cf016a521036bb66098260c001516040516116859190612c70565b60405180910390a17f6f2d9afa3c19b06834ae40509756c490fdd2d03459d9b51b563fa388d087bb5e816040516116bc9190612c70565b60405180910390a1600015158260c0015115151480156116d95750805b156118ec576000826040015190506000836080015190508060066000866020015173ffffffffffffffffffffffffffffffffffffffff1673ffffffffffffffffffffffffffffffffffffffff168152602001908152602001600020600082825403925050819055508060076000866020015173ffffffffffffffffffffffffffffffffffffffff1673ffffffffffffffffffffffffffffffffffffffff168152602001908152602001600020600082825403925050819055506001600460008873ffffffffffffffffffffffffffffffffffffffff1673ffffffffffffffffffffffffffffffffffffffff16815260200190815260200160002060008282540392505081905550600160096000866040015173ffffffffffffffffffffffffffffffffffffffff1673ffffffffffffffffffffffffffffffffffffffff16815260200190815260200160002060008282540392505081905550600160036000866020015173ffffffffffffffffffffffffffffffffffffffff1673ffffffffffffffffffffffffffffffffffffffff168152602001908152602001600020600087815260200190815260200160002060050160016101000a81548160ff0219169083151502179055508173ffffffffffffffffffffffffffffffffffffffff166108fc829081150290604051600060405180830381858888f193505050501580156118e8573d6000803e3d6000fd5b5050505b50505050565b6000600560003373ffffffffffffffffffffffffffffffffffffffff1673ffffffffffffffffffffffffffffffffffffffff16815260200190815260200160002054905090565b6000600660003373ffffffffffffffffffffffffffffffffffffffff1673ffffffffffffffffffffffffffffffffffffffff168152602001908152602001600020819055503373ffffffffffffffffffffffffffffffffffffffff166108fc479081150290604051600060405180830381858888f193505050501580156119c4573d6000803e3d6000fd5b50565b600260019054906101000a900473ffffffffffffffffffffffffffffffffffffffff1673ffffffffffffffffffffffffffffffffffffffff163373ffffffffffffffffffffffffffffffffffffffff1614611a57576040517f08c379a0000000000000000000000000000000000000000000000000000000008152600401611a4e90612cab565b60405180910390fd5b3373ffffffffffffffffffffffffffffffffffffffff16ff5b611a7c8484848461207d565b50505050565b3373ffffffffffffffffffffffffffffffffffffffff16600260019054906101000a900473ffffffffffffffffffffffffffffffffffffffff1673ffffffffffffffffffffffffffffffffffffffff1614611adc57600080fd5b600260009054906101000a900460ff1615600260006101000a81548160ff021916908315150217905550565b6000600960008373ffffffffffffffffffffffffffffffffffffffff1673ffffffffffffffffffffffffffffffffffffffff168152602001908152602001600020549050919050565b611b596128ab565b600860003373ffffffffffffffffffffffffffffffffffffffff1673ffffffffffffffffffffffffffffffffffffffff1681526020019081526020016000206000838152602001908152602001600020604051806060016040529081600082015481526020016001820160009054906101000a900473ffffffffffffffffffffffffffffffffffffffff1673ffffffffffffffffffffffffffffffffffffffff1673ffffffffffffffffffffffffffffffffffffffff1681526020016002820154815250509050611c2861283e565b60036000836020015173ffffffffffffffffffffffffffffffffffffffff1673ffffffffffffffffffffffffffffffffffffffff1681526020019081526020016000206000836040015181526020019081526020016000206040518060e0016040529081600082015481526020016001820160009054906101000a900473ffffffffffffffffffffffffffffffffffffffff1673ffffffffffffffffffffffffffffffffffffffff1673ffffffffffffffffffffffffffffffffffffffff1681526020016002820160009054906101000a900473ffffffffffffffffffffffffffffffffffffffff1673ffffffffffffffffffffffffffffffffffffffff1673ffffffffffffffffffffffffffffffffffffffff16815260200160038201548152602001600482015481526020016005820160009054906101000a900460ff161515151581526020016005820160019054906101000a900460ff1615151515815250509050806080015160076000846020015173ffffffffffffffffffffffffffffffffffffffff1673ffffffffffffffffffffffffffffffffffffffff16815260200190815260200160002060008282540392505081905550600160046000846020015173ffffffffffffffffffffffffffffffffffffffff1673ffffffffffffffffffffffffffffffffffffffff16815260200190815260200160002060008282540392505081905550600160096000836040015173ffffffffffffffffffffffffffffffffffffffff1673ffffffffffffffffffffffffffffffffffffffff1681526020019081526020016000206000828254039250508190555060086000826040015173ffffffffffffffffffffffffffffffffffffffff1673ffffffffffffffffffffffffffffffffffffffff16815260200190815260200160002060008481526020019081526020016000206000808201600090556001820160006101000a81549073ffffffffffffffffffffffffffffffffffffffff02191690556002820160009055505060036000826020015173ffffffffffffffffffffffffffffffffffffffff1673ffffffffffffffffffffffffffffffffffffffff1681526020019081526020016000206000826000015181526020019081526020016000206000808201600090556001820160006101000a81549073ffffffffffffffffffffffffffffffffffffffff02191690556002820160006101000a81549073ffffffffffffffffffffffffffffffffffffffff0219169055600382016000905560048201600090556005820160006101000a81549060ff02191690556005820160016101000a81549060ff021916905550507f378d509c7a00b59f6ba1227253f622ca750a85bf45cd3432c527351eb76007f4600160405161202d9190612c70565b60405180910390a1505050565b600062015180840290506120508582858561207d565b5050505050565b600260019054906101000a900473ffffffffffffffffffffffffffffffffffffffff1681565b6000339050600061208d82610c60565b90506000811161209c57600080fd5b60006120a7836106a5565b90508185820111156120b857600080fd5b84600760008573ffffffffffffffffffffffffffffffffffffffff1673ffffffffffffffffffffffffffffffffffffffff16815260200190815260200160002060008282540192505081905550600086420190506001600560008673ffffffffffffffffffffffffffffffffffffffff1673ffffffffffffffffffffffffffffffffffffffff168152602001908152602001600020600082825401925050819055506000600560008673ffffffffffffffffffffffffffffffffffffffff1673ffffffffffffffffffffffffffffffffffffffff1681526020019081526020016000205490506121a661283e565b6040518060e001604052808381526020018773ffffffffffffffffffffffffffffffffffffffff1681526020018b73ffffffffffffffffffffffffffffffffffffffff168152602001848152602001898152602001881515815260200160001515815250905080600360008873ffffffffffffffffffffffffffffffffffffffff1673ffffffffffffffffffffffffffffffffffffffff16815260200190815260200160002060008481526020019081526020016000206000820151816000015560208201518160010160006101000a81548173ffffffffffffffffffffffffffffffffffffffff021916908373ffffffffffffffffffffffffffffffffffffffff16021790555060408201518160020160006101000a81548173ffffffffffffffffffffffffffffffffffffffff021916908373ffffffffffffffffffffffffffffffffffffffff160217905550606082015181600301556080820151816004015560a08201518160050160006101000a81548160ff02191690831515021790555060c08201518160050160016101000a81548160ff0219169083151502179055509050506001600460008873ffffffffffffffffffffffffffffffffffffffff1673ffffffffffffffffffffffffffffffffffffffff168152602001908152602001600020600082825401925050819055506123a586838c61266d565b50505050505050505050565b60006123bb61283e565b600360008573ffffffffffffffffffffffffffffffffffffffff1673ffffffffffffffffffffffffffffffffffffffff16815260200190815260200160002060008481526020019081526020016000206040518060e0016040529081600082015481526020016001820160009054906101000a900473ffffffffffffffffffffffffffffffffffffffff1673ffffffffffffffffffffffffffffffffffffffff1673ffffffffffffffffffffffffffffffffffffffff1681526020016002820160009054906101000a900473ffffffffffffffffffffffffffffffffffffffff1673ffffffffffffffffffffffffffffffffffffffff1673ffffffffffffffffffffffffffffffffffffffff16815260200160038201548152602001600482015481526020016005820160009054906101000a900460ff161515151581526020016005820160019054906101000a900460ff16151515158152505090506000600a6000836040015173ffffffffffffffffffffffffffffffffffffffff1673ffffffffffffffffffffffffffffffffffffffff16815260200190815260200160002054905060005b818111612664576125726128ab565b60086000856040015173ffffffffffffffffffffffffffffffffffffffff1673ffffffffffffffffffffffffffffffffffffffff1681526020019081526020016000206000838152602001908152602001600020604051806060016040529081600082015481526020016001820160009054906101000a900473ffffffffffffffffffffffffffffffffffffffff1673ffffffffffffffffffffffffffffffffffffffff1673ffffffffffffffffffffffffffffffffffffffff16815260200160028201548152505090508581604001511415612656578060000151945050612664565b508080600101915050612563565b50505092915050565b6001600a60008373ffffffffffffffffffffffffffffffffffffffff1673ffffffffffffffffffffffffffffffffffffffff168152602001908152602001600020600082825401925050819055506000600a60008373ffffffffffffffffffffffffffffffffffffffff1673ffffffffffffffffffffffffffffffffffffffff1681526020019081526020016000205490506127076128ab565b60405180606001604052808381526020018673ffffffffffffffffffffffffffffffffffffffff16815260200185815250905080600860008573ffffffffffffffffffffffffffffffffffffffff1673ffffffffffffffffffffffffffffffffffffffff16815260200190815260200160002060008481526020019081526020016000206000820151816000015560208201518160010160006101000a81548173ffffffffffffffffffffffffffffffffffffffff021916908373ffffffffffffffffffffffffffffffffffffffff160217905550604082015181600201559050506001600960008573ffffffffffffffffffffffffffffffffffffffff1673ffffffffffffffffffffffffffffffffffffffff168152602001908152602001600020600082825401925050819055505050505050565b6040518060e0016040528060008152602001600073ffffffffffffffffffffffffffffffffffffffff168152602001600073ffffffffffffffffffffffffffffffffffffffff16815260200160008152602001600081526020016000151581526020016000151581525090565b604051806060016040528060008152602001600073ffffffffffffffffffffffffffffffffffffffff168152602001600081525090565b6000813590506128f181612d75565b92915050565b60008135905061290681612d8c565b92915050565b60008135905061291b81612da3565b92915050565b60006020828403121561293357600080fd5b6000612941848285016128e2565b91505092915050565b6000806040838503121561295d57600080fd5b600061296b858286016128e2565b925050602061297c8582860161290c565b9150509250929050565b6000806000806080858703121561299c57600080fd5b60006129aa878288016128e2565b94505060206129bb8782880161290c565b93505060406129cc8782880161290c565b92505060606129dd878288016128f7565b91505092959194509250565b6000602082840312156129fb57600080fd5b6000612a098482850161290c565b91505092915050565b60008060408385031215612a2557600080fd5b6000612a338582860161290c565b9250506020612a448582860161290c565b9150509250929050565b612a5781612d2d565b82525050565b612a6681612d2d565b82525050565b612a7581612d3f565b82525050565b612a8481612d3f565b82525050565b6000612a97600983612d1c565b91507f746f6f20736d616c6c00000000000000000000000000000000000000000000006000830152602082019050919050565b6000612ad7603383612d1c565b91507f546869732066756e6374696f6e206973207265737472696374656420746f207460008301527f686520636f6e74726163742773206f776e6572000000000000000000000000006020830152604082019050919050565b60e082016000820151612b466000850182612c00565b506020820151612b596020850182612a4e565b506040820151612b6c6040850182612a4e565b506060820151612b7f6060850182612c00565b506080820151612b926080850182612c00565b5060a0820151612ba560a0850182612a6c565b5060c0820151612bb860c0850182612a6c565b50505050565b606082016000820151612bd46000850182612c00565b506020820151612be76020850182612a4e565b506040820151612bfa6040850182612c00565b50505050565b612c0981612d6b565b82525050565b612c1881612d6b565b82525050565b6000602082019050612c336000830184612a5d565b92915050565b6000606082019050612c4e6000830186612a5d565b612c5b6020830185612a5d565b612c686040830184612c0f565b949350505050565b6000602082019050612c856000830184612a7b565b92915050565b60006020820190508181036000830152612ca481612a8a565b9050919050565b60006020820190508181036000830152612cc481612aca565b9050919050565b600060e082019050612ce06000830184612b30565b92915050565b6000606082019050612cfb6000830184612bbe565b92915050565b6000602082019050612d166000830184612c0f565b92915050565b600082825260208201905092915050565b6000612d3882612d4b565b9050919050565b60008115159050919050565b600073ffffffffffffffffffffffffffffffffffffffff82169050919050565b6000819050919050565b612d7e81612d2d565b8114612d8957600080fd5b50565b612d9581612d3f565b8114612da057600080fd5b50565b612dac81612d6b565b8114612db757600080fd5b5056fea26469706673582212207853ba00f9417ee5e39f382d43163e112d03dd7684d115001d3d63ac4a05f57f64736f6c634300060c0033",
  "immutableReferences": {},
  "source": "// SPDX-License-Identifier: GPL-3.0\r\npragma solidity >=0.4.22 <0.8.0;\r\npragma experimental ABIEncoderV2;\r\n\r\nimport \"./Secure.sol\";\r\n\r\ncontract DisburseV1 is Secure {\r\n\r\n    struct Beneficiary { \r\n        uint256 id;\r\n        address trustAddress;\r\n        address beneficiaryAddress;\r\n        uint256 disburseDate;\r\n        uint256 amount;\r\n        bool cancelAllowed;\r\n        bool complete;\r\n    }\r\n\r\n    struct Disbursement { \r\n        uint256 id;\r\n        address trustAddress;\r\n        uint256 beneficiaryId;\r\n    }\r\n\r\n    // Events:\r\n    event DisburseFundsEvent(address from, address to, uint256 amount);\r\n    event DisbursementCompleteEvent(bool flag);\r\n    event DisbursementReadyEvent(bool flag);\r\n    event CancelAllowed(bool flag);\r\n    event RemoveBeneficiary(bool flag);\r\n    event RefundTrust(bool flag);\r\n\r\n    // Persistent contract storage variables\r\n\r\n    // Mapping from trust to list of beneficiaries\r\n    // Mapping that outlines how funds should be disbursed to beneficiaries\r\n    mapping(address => mapping(uint256 => Beneficiary)) beneficiaries;\r\n\r\n    // Mapping to record total beneficiaries for each trust\r\n    mapping(address => uint256) beneficiaryCount;\r\n\r\n    // Mapping to record last beneficiary id for each trust\r\n    mapping(address => uint256) topBeneficiaryId;\r\n\r\n    // Mapping that records total trust balance\r\n    mapping(address => uint256) trustBalance;\r\n    \r\n    // Mapping the current beneficiary balance, which may be less than the trust balance\r\n    mapping(address => uint256) beneficiaryBalance;\r\n\r\n    // Mapping of beneficiary to list of disbursements\r\n    // Mapping that outlines all upcoming disbursements to beneficiaries\r\n    mapping(address => mapping(uint256 => Disbursement)) disbursements;\r\n\r\n    // Mapping to record total disbursements for each beneficiary\r\n    mapping(address => uint256) disbursementCount;\r\n\r\n    // Mapping to record last disbursement id for each beneficiary\r\n    mapping(address => uint256) topDisbursementId;\r\n\r\n    // Call parent constructor and initialize secure contract\r\n    constructor() Secure(msg.sender) public {}\r\n\r\n    function contributeToTrust() public payable {\r\n        trustBalance[msg.sender] += msg.value;  // Add funds to any previous funds\r\n    }\r\n\r\n    function getTrustBalance(address _trustAddress) public view returns(uint256) {\r\n        return trustBalance[_trustAddress];\r\n    }\r\n\r\n    function withdrawTrustBalance() public {\r\n        trustBalance[msg.sender] = 0;\r\n        msg.sender.transfer(address(this).balance);\r\n    }\r\n\r\n    function withdrawAmountFromTrustBalance(uint256 _amount) public {\r\n        trustBalance[msg.sender] -= _amount;\r\n        msg.sender.transfer(_amount);\r\n    }\r\n\r\n    function getBeneficiaryBalance(address _trustAddress) public view returns(uint256) {\r\n        return beneficiaryBalance[_trustAddress];\r\n    }\r\n\r\n    function getContractBalance() public view returns(uint256) {\r\n        return address(this).balance;\r\n    }\r\n\r\n    function addBeneficiarySeconds(address _beneficiaryAddress, uint256 _seconds, uint256 _amount, bool _cancelAllowed) public {\r\n        addBeneficiary(_beneficiaryAddress, _seconds, _amount, _cancelAllowed);\r\n    }\r\n\r\n    function addBeneficiaryDays(address _beneficiaryAddress, uint256 _days, uint256 _amount, bool _cancelAllowed) public {\r\n        uint256 sec =  _days * 86400;               // Determine number of seconds\r\n        addBeneficiary(_beneficiaryAddress, sec, _amount, _cancelAllowed);\r\n    }\r\n\r\n    function addBeneficiary(address _beneficiaryAddress, uint256 _seconds, uint256 _amount, bool _cancelAllowed) public {\r\n        \r\n        // Only trust owner can add beneficiary \r\n        address trustAddress = msg.sender;\r\n        \r\n        // Ensure trust has been previously intiated\r\n        uint256 trustAmount = getTrustBalance(trustAddress);\r\n        require(trustAmount > 0);\r\n        \r\n        // Ensure trust has sufficient funds to disburse to beneficiary\r\n        uint256 beneficiaryAmount = getBeneficiaryBalance(trustAddress);\r\n        require (beneficiaryAmount + _amount <= trustAmount);\r\n        \r\n        // Update total beneficiary amount\r\n        beneficiaryBalance[trustAddress] += _amount;\r\n\r\n        // Determine beneficiary disbursement date\r\n        uint256 delayInSeconds = block.timestamp + _seconds;\r\n\r\n        // Update to next available beneficiary id\r\n        // NOTE: Id's cannot start at 0, otherwise the return id of an existing\r\n        // address and non-existing address will look the same\r\n        topBeneficiaryId[trustAddress] += 1;\r\n\r\n        // Get beneficiary id\r\n        uint256 beneficiaryId = topBeneficiaryId[trustAddress];\r\n\r\n        // Create new beneficiary\r\n        Beneficiary memory beneficiary = Beneficiary(\r\n                                            beneficiaryId,\r\n                                            trustAddress, \r\n                                            _beneficiaryAddress, \r\n                                            delayInSeconds, \r\n                                            _amount, \r\n                                            _cancelAllowed,\r\n                                            false);\r\n                                            \r\n\r\n        // Every key maps to something. If no value has been set yet, then the value is 0. \r\n        beneficiaries[trustAddress][beneficiaryId] = beneficiary;\r\n\r\n        // Update total number of beneficiaries this trust is managing\r\n        beneficiaryCount[trustAddress] += 1;\r\n\r\n        // Add disbursement\r\n        addDisbursement(trustAddress, beneficiaryId, _beneficiaryAddress);\r\n    }\r\n    \r\n    // Add a disbursement once a new beneficiary has been added \r\n    function addDisbursement(address _trustAddress, uint256 _beneficiaryId, address _beneficiaryAddress) internal {\r\n\r\n        // Update to next available disbursement id\r\n        topDisbursementId[_beneficiaryAddress] += 1;        \r\n        \r\n        // Get disbursement id that was just incremented\r\n        uint256 disbursementId = topDisbursementId[_beneficiaryAddress];\r\n\r\n        // Create new disbursement\r\n        Disbursement memory disbursement = Disbursement(\r\n                                            disbursementId,\r\n                                            _trustAddress, \r\n                                            _beneficiaryId);\r\n\r\n         // Every key maps to something. If no value has been set yet, then the value is 0. \r\n        disbursements[_beneficiaryAddress][disbursementId] = disbursement;\r\n        \r\n        // Update total number of disbursements this beneficiary is managing\r\n        disbursementCount[_beneficiaryAddress] += 1;    \r\n        \r\n    }\r\n    \r\n    // Retrieve total number of beneficiaries of a partricular trust account\r\n    function getBeneficiaryCount() public view returns(uint256 _count) {\r\n        _count = beneficiaryCount[msg.sender];\r\n    }\r\n\r\n    // Counter that increments the id's of beneficiaries\r\n    function getTopBeneficiaryId() public view returns(uint256 _count) {\r\n        _count = topBeneficiaryId[msg.sender];\r\n    }\r\n\r\n    // Retrieve beneficiary based on it's unique id\r\n    function getBeneficiary(uint256 _beneficiaryId) public view returns(Beneficiary memory _beneficiary) {\r\n        // Only trust owner can get details of beneficiary\r\n        _beneficiary = beneficiaries[msg.sender][_beneficiaryId];\r\n    }\r\n    \r\n    // TODO FIX: What happens if we have the same beneficiary Address on two different disbursement dates?\r\n    // This implies there is more than one ID associated with an address.\r\n\r\n    function getBeneficiaryId(address _beneficiaryAddress) public view returns(uint256 _id) {\r\n        \r\n        // NOTE: Id's cannot be zero indexed, otherwise the return id of an existing\r\n        // address and non-existing address will look the same\r\n        \r\n        // Retrieve the Id of the last most beneficiary\r\n        uint256 topId = topBeneficiaryId[msg.sender];\r\n        \r\n        for (uint256 id = 0; id <= topId; id++){\r\n            Beneficiary memory beneficiary = beneficiaries[msg.sender][id];\r\n            \r\n            if ((beneficiary.beneficiaryAddress == _beneficiaryAddress) &&\r\n                (beneficiary.complete == false)){\r\n                _id = beneficiary.id;\r\n                break;\r\n            }\r\n        }\r\n    }\r\n\r\n    // Retrieve total number of disbursements of a partricular beneficiary\r\n    function getDisbursementCount(address _beneficiary) public view returns(uint256) {\r\n        return disbursementCount[_beneficiary];\r\n    }\r\n\r\n    // Counter that increments the id's of disbursements\r\n    function getTopDisbursementId() public view returns(uint256) {\r\n        return topDisbursementId[msg.sender];\r\n    }\r\n\r\n    // Retrieve the disbursement ID associated with a given beneficiary ID\r\n    function getDisbursementId(address _trustAddress, uint256 _beneficiaryId) public view returns(uint256 _id) {\r\n        \r\n        // Retrieve Beneficiary\r\n        Beneficiary memory beneficiary = beneficiaries[_trustAddress][_beneficiaryId];\r\n        \r\n        // Retrieve the Id of the last disbursement\r\n        uint256 topId = topDisbursementId[beneficiary.beneficiaryAddress];\r\n        \r\n        for (uint256 id = 0; id <= topId; id++){\r\n            \r\n            Disbursement memory disbursement = disbursements[beneficiary.beneficiaryAddress][id];\r\n            \r\n            if (disbursement.beneficiaryId == _beneficiaryId) {\r\n                _id = disbursement.id;\r\n                break;\r\n            }\r\n        }\r\n    }\r\n\r\n    // Retrieve disbursement based on it's unique id\r\n    function getDisbursement(address _beneficiaryAddress, uint256 _disbursementId) public view returns(Disbursement memory _disbursement) {\r\n        _disbursement = disbursements[_beneficiaryAddress][_disbursementId];\r\n    }\r\n\r\n    // Determine if the disbursement date has passed\r\n    function readyToDisburse(address _trustAddress, uint256 _id) public view returns (bool) {\r\n        \r\n        Beneficiary memory beneficiary = beneficiaries[_trustAddress][_id];\r\n        \r\n        // Ensure deadline has been set && has passed\r\n        if (beneficiary.disburseDate != 0 && block.timestamp >= beneficiary.disburseDate) return true; \r\n\r\n        return false; \r\n    }  \r\n\r\n    // This function should be callable anyone, including the beneficiary\r\n    // This function will only execute AFTER the disbursement date, unlike removeBeneficiary which\r\n    // executes BEFORE the disbursement date. \r\n    function disburseFunds(address _trustAddress, uint256 _beneficiaryId) public {\r\n        \r\n        Beneficiary memory beneficiary = beneficiaries[_trustAddress][_beneficiaryId];\r\n        bool passedDisbursementDate = readyToDisburse(_trustAddress, _beneficiaryId);\r\n\r\n        emit DisburseFundsEvent(_trustAddress, beneficiary.beneficiaryAddress, beneficiary.amount);\r\n        emit DisbursementCompleteEvent(beneficiary.complete);\r\n        emit DisbursementReadyEvent(passedDisbursementDate);\r\n\r\n        // Will only execute AFTER disbursement date\r\n        if (beneficiary.complete == false && passedDisbursementDate) {\r\n\r\n            address payable beneficiaryAddress = payable(beneficiary.beneficiaryAddress);\r\n            uint256 amount = beneficiary.amount;\r\n            \r\n            // Reduce trust balance\r\n            trustBalance[beneficiary.trustAddress] -= amount;\r\n            \r\n            // Reduce total beneficiary claims\r\n            beneficiaryBalance[beneficiary.trustAddress] -= amount;\r\n            \r\n            // Update total number of ACTIVE beneficiaries this trust is managing\r\n            // This does not delete the history in the mapping\r\n            beneficiaryCount[_trustAddress] -= 1;\r\n\r\n            // Update total number of ACTIVE disbursements tied to this beneficiary\r\n            // This does not delete the history in the mapping\r\n            disbursementCount[beneficiary.beneficiaryAddress] -= 1;\r\n\r\n            // Set the complete flag to true\r\n            beneficiaries[beneficiary.trustAddress][_beneficiaryId].complete = true;\r\n\r\n            // Finally, disburse funds to beneficiary\r\n            beneficiaryAddress.transfer(amount);\r\n        }\r\n    }\r\n\r\n    // Remove beneficiary at a unique id\r\n    // This function will only execute BEFORE the disbursement date, unlike disburseFunds which\r\n    // executes AFTER the disbursement date.\r\n    function removeBeneficiary(uint256 _beneficiaryId) public {\r\n\r\n        address _trustAddress = msg.sender;\r\n        // Retrieve beneficiary address\r\n        Beneficiary memory beneficiary = beneficiaries[_trustAddress][_beneficiaryId];\r\n    \r\n        if ((beneficiary.id == _beneficiaryId)  && (beneficiary.cancelAllowed == true)) {\r\n\r\n            bool passedDisbursementDate = readyToDisburse(_trustAddress, _beneficiaryId);\r\n\r\n            // Will only execute BEFORE disbursement date\r\n            if (!passedDisbursementDate) {\r\n                \r\n                // The trustBalance changes with deposit, withdraw and disburseFunds.\r\n\r\n                // Reduce total beneficiary claims\r\n                beneficiaryBalance[_trustAddress] -= beneficiary.amount;\r\n                \r\n                // Update total number of beneficiaries this trust is managing\r\n                beneficiaryCount[_trustAddress] -= 1;\r\n\r\n                // Update total number of disbursements tied to this beneficiary\r\n                disbursementCount[beneficiary.beneficiaryAddress] -= 1;\r\n\r\n                uint256 disbursementId = getDisbursementId(_trustAddress, _beneficiaryId);\r\n\r\n                // will delete the struct.  \r\n                // This deletion must occur BEFORE the beneficiary deletion, otherwise address will not existing\r\n                delete disbursements[beneficiary.beneficiaryAddress][disbursementId];\r\n                \r\n                 // will delete the struct\r\n                delete beneficiaries[_trustAddress][_beneficiaryId];\r\n\r\n                emit RemoveBeneficiary(true);\r\n            }\r\n        }\r\n        else{\r\n            emit RemoveBeneficiary(false);\r\n        }\r\n    }\r\n\r\n    // This function can only be called by a valid beneficiary (not everyone)\r\n    function refundTrust(uint256 _disbursementId) public {\r\n\r\n        Disbursement memory disbursement = disbursements[msg.sender][_disbursementId];\r\n\r\n        Beneficiary memory beneficiary = beneficiaries[disbursement.trustAddress][disbursement.beneficiaryId];\r\n\r\n        // Reduce total beneficiary claims\r\n        beneficiaryBalance[disbursement.trustAddress] -= beneficiary.amount;\r\n        \r\n        // Update total number of beneficiaries this trust is managing\r\n        beneficiaryCount[disbursement.trustAddress] -= 1;\r\n\r\n        // Update total number of disbursements tied to this beneficiary\r\n        disbursementCount[beneficiary.beneficiaryAddress] -= 1;\r\n\r\n        // will delete the struct.  \r\n        // This deletion must occur BEFORE the beneficiary deletion, otherwise address will not existing\r\n        delete disbursements[beneficiary.beneficiaryAddress][_disbursementId];\r\n        \r\n        // will delete the struct\r\n        delete beneficiaries[beneficiary.trustAddress][beneficiary.id];\r\n\r\n        emit RefundTrust(true);\r\n    }\r\n\r\n    // Emergency: destroy contract and reclaim leftover funds.\r\n    function emergency() public restricted {\r\n        selfdestruct(msg.sender);\r\n    }\r\n\r\n    // Utility function\r\n    function calculatePercentage(uint256 _amount, uint256 _bps) public pure returns(uint256) {\r\n        \r\n        // Ensure amount being calculated is large enough\r\n        require ((_amount / 10000) * 10000 == _amount, 'too small');\r\n        \r\n        // Example: Assume 185 basis points, which is the same as 0.0185\r\n        // To turn 0.0185 into a non-decimal it must be times by 10,10000\r\n        // 0.0185 = 10,000 \r\n        // Then to return the number to its original value it must be divided by 10,000\r\n        \r\n        return _amount * _bps / 10000;\r\n    }\r\n\r\n}",
  "sourcePath": "D:/Code/app/contracts/DisburseV1.sol",
  "compiler": {
    "name": "solc",
    "version": "0.6.12+commit.27d51765.Emscripten.clang"
  },
  "schemaVersion": "3.3.2",
  "updatedAt": "2021-01-09T07:02:31.190Z",
  "networkType": "ethereum",
  "devdoc": {
    "kind": "dev",
    "methods": {
      "paused()": {
        "details": "Returns true if the contract is paused, and false otherwise."
      }
    },
    "version": 1
  },
  "userdoc": {
    "kind": "user",
    "methods": {},
    "version": 1
  }
}